{"abi":[{"type":"constructor","inputs":[{"name":"_token","type":"address","internalType":"address"},{"name":"_canvas","type":"address","internalType":"address"}],"stateMutability":"nonpayable"},{"type":"function","name":"advanceRound","inputs":[],"outputs":[],"stateMutability":"nonpayable"},{"type":"function","name":"canvas","inputs":[],"outputs":[{"name":"","type":"address","internalType":"address"}],"stateMutability":"view"},{"type":"function","name":"currentRound","inputs":[],"outputs":[{"name":"","type":"uint256","internalType":"uint256"}],"stateMutability":"view"},{"type":"function","name":"distributeRewards","inputs":[{"name":"winners","type":"address[]","internalType":"address[]"},{"name":"amounts","type":"uint256[]","internalType":"uint256[]"}],"outputs":[],"stateMutability":"nonpayable"},{"type":"function","name":"owner","inputs":[],"outputs":[{"name":"","type":"address","internalType":"address"}],"stateMutability":"view"},{"type":"function","name":"renounceOwnership","inputs":[],"outputs":[],"stateMutability":"nonpayable"},{"type":"function","name":"setCanvas","inputs":[{"name":"_canvas","type":"address","internalType":"address"}],"outputs":[],"stateMutability":"nonpayable"},{"type":"function","name":"token","inputs":[],"outputs":[{"name":"","type":"address","internalType":"address"}],"stateMutability":"view"},{"type":"function","name":"transferOwnership","inputs":[{"name":"newOwner","type":"address","internalType":"address"}],"outputs":[],"stateMutability":"nonpayable"},{"type":"event","name":"CanvasUpdated","inputs":[{"name":"previous","type":"address","indexed":true,"internalType":"address"},{"name":"current","type":"address","indexed":true,"internalType":"address"}],"anonymous":false},{"type":"event","name":"OwnershipTransferred","inputs":[{"name":"previousOwner","type":"address","indexed":true,"internalType":"address"},{"name":"newOwner","type":"address","indexed":true,"internalType":"address"}],"anonymous":false},{"type":"event","name":"RewardsDistributed","inputs":[{"name":"roundId","type":"uint256","indexed":true,"internalType":"uint256"},{"name":"winners","type":"address[]","indexed":false,"internalType":"address[]"},{"name":"amounts","type":"uint256[]","indexed":false,"internalType":"uint256[]"}],"anonymous":false},{"type":"event","name":"RoundAdvanced","inputs":[{"name":"previousRound","type":"uint256","indexed":true,"internalType":"uint256"},{"name":"newRound","type":"uint256","indexed":true,"internalType":"uint256"}],"anonymous":false},{"type":"error","name":"ArrayLengthMismatch","inputs":[]},{"type":"error","name":"InvalidAddress","inputs":[]},{"type":"error","name":"OwnableInvalidOwner","inputs":[{"name":"owner","type":"address","internalType":"address"}]},{"type":"error","name":"OwnableUnauthorizedAccount","inputs":[{"name":"account","type":"address","internalType":"address"}]},{"type":"error","name":"ReentrancyGuardReentrantCall","inputs":[]},{"type":"error","name":"TransferFailed","inputs":[]}],"bytecode":{"object":"0x60a060405234801561000f575f80fd5b5060405161084b38038061084b83398101604081905261002e9161011a565b338061005357604051631e4fbdf760e01b81525f600482015260240160405180910390fd5b61005c816100b0565b50600180556001600160a01b0382166100885760405163e6c4247b60e01b815260040160405180910390fd5b6001600160a01b03918216608052600280546001600160a01b0319169190921617905561014b565b5f80546001600160a01b038381166001600160a01b0319831681178455604051919092169283917f8be0079c531659141344cd1fd0a4f28419497f9722a3daafe3b4186f6b6457e09190a35050565b80516001600160a01b0381168114610115575f80fd5b919050565b5f806040838503121561012b575f80fd5b610134836100ff565b9150610142602084016100ff565b90509250929050565b6080516106e161016a5f395f818161013701526101b801526106e15ff3fe608060405234801561000f575f80fd5b5060043610610090575f3560e01c80638da5cb5b116100635780638da5cb5b146100d55780639b8e9b5e146100f9578063a064f1091461010c578063f2fde38b1461011f578063fc0c546a14610132575f80fd5b8063143ba4f3146100945780631ba9998b146100a9578063715018a6146100b15780638a19c8bc146100b9575b5f80fd5b6100a76100a236600461053c565b610159565b005b6100a7610274565b6100a76102c2565b6100c260035481565b6040519081526020015b60405180910390f35b5f546001600160a01b03165b6040516001600160a01b0390911681526020016100cc565b6002546100e1906001600160a01b031681565b6100a761011a3660046105c3565b6102d5565b6100a761012d3660046105c3565b610355565b6100e17f000000000000000000000000000000000000000000000000000000000000000081565b610161610397565b6101696103c3565b8281146101895760405163512509d360e11b815260040160405180910390fd5b5f5b83811015610224575f8383838181106101a6576101a66105e3565b90506020020135111561021c5761021c7f00000000000000000000000000000000000000000000000000000000000000008686848181106101e9576101e96105e3565b90506020020160208101906101fe91906105c3565b858585818110610210576102106105e3565b905060200201356103ed565b60010161018b565b506003547fac9fe8ad7f55eac03284399116ecafc104f10459773f4cdf47063c46e5be335a8585858560405161025d94939291906105f7565b60405180910390a261026e60018055565b50505050565b61027c610397565b600380549081905f61028d83610671565b909155505060035460405182907fed61a2d4b614cbd5677b44533d7c136e648e6d1d48f11bc307e8269df0f0ba96905f90a350565b6102ca610397565b6102d35f6104a5565b565b6102dd610397565b6001600160a01b0381166103045760405163e6c4247b60e01b815260040160405180910390fd5b600280546001600160a01b038381166001600160a01b0319831681179093556040519116919082907f60f31506da263a21b8a0137b7f1a71ed0eb5b248c0b7a5d7d8e8468171c8ad3b905f90a35050565b61035d610397565b6001600160a01b03811661038b57604051631e4fbdf760e01b81525f60048201526024015b60405180910390fd5b610394816104a5565b50565b5f546001600160a01b031633146102d35760405163118cdaa760e01b8152336004820152602401610382565b6002600154036103e657604051633ee5aeb560e01b815260040160405180910390fd5b6002600155565b6040516001600160a01b038381166024830152604482018390525f919085169060640160408051601f198184030181529181526020820180516001600160e01b031663a9059cbb60e01b179052516104459190610695565b5f604051808303815f865af19150503d805f811461047e576040519150601f19603f3d011682016040523d82523d5f602084013e610483565b606091505b505090508061026e576040516312171d8360e31b815260040160405180910390fd5b5f80546001600160a01b038381166001600160a01b0319831681178455604051919092169283917f8be0079c531659141344cd1fd0a4f28419497f9722a3daafe3b4186f6b6457e09190a35050565b5f8083601f840112610504575f80fd5b50813567ffffffffffffffff81111561051b575f80fd5b6020830191508360208260051b8501011115610535575f80fd5b9250929050565b5f805f806040858703121561054f575f80fd5b843567ffffffffffffffff811115610565575f80fd5b610571878288016104f4565b909550935050602085013567ffffffffffffffff811115610590575f80fd5b61059c878288016104f4565b95989497509550505050565b80356001600160a01b03811681146105be575f80fd5b919050565b5f602082840312156105d3575f80fd5b6105dc826105a8565b9392505050565b634e487b7160e01b5f52603260045260245ffd5b604080825281018490525f8560608301825b87811015610637576001600160a01b03610622846105a8565b16825260209283019290910190600101610609565b5083810360208501528481526001600160fb1b03851115610656575f80fd5b8460051b915081866020830137016020019695505050505050565b5f6001820161068e57634e487b7160e01b5f52601160045260245ffd5b5060010190565b5f82518060208501845e5f92019182525091905056fea26469706673582212206273155154be0bbdecde045583e5663b2d2b695e069b3d6dad704bf7d661120364736f6c634300081a0033","linkReferences":{}},"methodIdentifiers":{"advanceRound()":"1ba9998b","canvas()":"9b8e9b5e","currentRound()":"8a19c8bc","distributeRewards(address[],uint256[])":"143ba4f3","owner()":"8da5cb5b","renounceOwnership()":"715018a6","setCanvas(address)":"a064f109","token()":"fc0c546a","transferOwnership(address)":"f2fde38b"},"id":4}