{"abi":[{"type":"constructor","inputs":[{"name":"baseURI_","type":"string","internalType":"string"}],"stateMutability":"nonpayable"},{"type":"function","name":"approve","inputs":[{"name":"to","type":"address","internalType":"address"},{"name":"tokenId","type":"uint256","internalType":"uint256"}],"outputs":[],"stateMutability":"nonpayable"},{"type":"function","name":"balanceOf","inputs":[{"name":"owner","type":"address","internalType":"address"}],"outputs":[{"name":"","type":"uint256","internalType":"uint256"}],"stateMutability":"view"},{"type":"function","name":"getApproved","inputs":[{"name":"tokenId","type":"uint256","internalType":"uint256"}],"outputs":[{"name":"","type":"address","internalType":"address"}],"stateMutability":"view"},{"type":"function","name":"isApprovedForAll","inputs":[{"name":"owner","type":"address","internalType":"address"},{"name":"operator","type":"address","internalType":"address"}],"outputs":[{"name":"","type":"bool","internalType":"bool"}],"stateMutability":"view"},{"type":"function","name":"mint","inputs":[{"name":"to","type":"address","internalType":"address"},{"name":"roundId","type":"uint256","internalType":"uint256"}],"outputs":[{"name":"tokenId","type":"uint256","internalType":"uint256"}],"stateMutability":"nonpayable"},{"type":"function","name":"name","inputs":[],"outputs":[{"name":"","type":"string","internalType":"string"}],"stateMutability":"view"},{"type":"function","name":"owner","inputs":[],"outputs":[{"name":"","type":"address","internalType":"address"}],"stateMutability":"view"},{"type":"function","name":"ownerOf","inputs":[{"name":"tokenId","type":"uint256","internalType":"uint256"}],"outputs":[{"name":"","type":"address","internalType":"address"}],"stateMutability":"view"},{"type":"function","name":"renounceOwnership","inputs":[],"outputs":[],"stateMutability":"nonpayable"},{"type":"function","name":"roundByTokenId","inputs":[{"name":"","type":"uint256","internalType":"uint256"}],"outputs":[{"name":"","type":"uint256","internalType":"uint256"}],"stateMutability":"view"},{"type":"function","name":"safeTransferFrom","inputs":[{"name":"from","type":"address","internalType":"address"},{"name":"to","type":"address","internalType":"address"},{"name":"tokenId","type":"uint256","internalType":"uint256"}],"outputs":[],"stateMutability":"nonpayable"},{"type":"function","name":"safeTransferFrom","inputs":[{"name":"from","type":"address","internalType":"address"},{"name":"to","type":"address","internalType":"address"},{"name":"tokenId","type":"uint256","internalType":"uint256"},{"name":"data","type":"bytes","internalType":"bytes"}],"outputs":[],"stateMutability":"nonpayable"},{"type":"function","name":"setApprovalForAll","inputs":[{"name":"operator","type":"address","internalType":"address"},{"name":"approved","type":"bool","internalType":"bool"}],"outputs":[],"stateMutability":"nonpayable"},{"type":"function","name":"setBaseURI","inputs":[{"name":"baseURI_","type":"string","internalType":"string"}],"outputs":[],"stateMutability":"nonpayable"},{"type":"function","name":"supportsInterface","inputs":[{"name":"interfaceId","type":"bytes4","internalType":"bytes4"}],"outputs":[{"name":"","type":"bool","internalType":"bool"}],"stateMutability":"view"},{"type":"function","name":"symbol","inputs":[],"outputs":[{"name":"","type":"string","internalType":"string"}],"stateMutability":"view"},{"type":"function","name":"tokenURI","inputs":[{"name":"tokenId","type":"uint256","internalType":"uint256"}],"outputs":[{"name":"","type":"string","internalType":"string"}],"stateMutability":"view"},{"type":"function","name":"transferFrom","inputs":[{"name":"from","type":"address","internalType":"address"},{"name":"to","type":"address","internalType":"address"},{"name":"tokenId","type":"uint256","internalType":"uint256"}],"outputs":[],"stateMutability":"nonpayable"},{"type":"function","name":"transferOwnership","inputs":[{"name":"newOwner","type":"address","internalType":"address"}],"outputs":[],"stateMutability":"nonpayable"},{"type":"event","name":"Approval","inputs":[{"name":"owner","type":"address","indexed":true,"internalType":"address"},{"name":"approved","type":"address","indexed":true,"internalType":"address"},{"name":"tokenId","type":"uint256","indexed":true,"internalType":"uint256"}],"anonymous":false},{"type":"event","name":"ApprovalForAll","inputs":[{"name":"owner","type":"address","indexed":true,"internalType":"address"},{"name":"operator","type":"address","indexed":true,"internalType":"address"},{"name":"approved","type":"bool","indexed":false,"internalType":"bool"}],"anonymous":false},{"type":"event","name":"Minted","inputs":[{"name":"to","type":"address","indexed":true,"internalType":"address"},{"name":"tokenId","type":"uint256","indexed":true,"internalType":"uint256"},{"name":"roundId","type":"uint256","indexed":false,"internalType":"uint256"}],"anonymous":false},{"type":"event","name":"OwnershipTransferred","inputs":[{"name":"previousOwner","type":"address","indexed":true,"internalType":"address"},{"name":"newOwner","type":"address","indexed":true,"internalType":"address"}],"anonymous":false},{"type":"event","name":"Transfer","inputs":[{"name":"from","type":"address","indexed":true,"internalType":"address"},{"name":"to","type":"address","indexed":true,"internalType":"address"},{"name":"tokenId","type":"uint256","indexed":true,"internalType":"uint256"}],"anonymous":false},{"type":"error","name":"ERC721IncorrectOwner","inputs":[{"name":"sender","type":"address","internalType":"address"},{"name":"tokenId","type":"uint256","internalType":"uint256"},{"name":"owner","type":"address","internalType":"address"}]},{"type":"error","name":"ERC721InsufficientApproval","inputs":[{"name":"operator","type":"address","internalType":"address"},{"name":"tokenId","type":"uint256","internalType":"uint256"}]},{"type":"error","name":"ERC721InvalidApprover","inputs":[{"name":"approver","type":"address","internalType":"address"}]},{"type":"error","name":"ERC721InvalidOperator","inputs":[{"name":"operator","type":"address","internalType":"address"}]},{"type":"error","name":"ERC721InvalidOwner","inputs":[{"name":"owner","type":"address","internalType":"address"}]},{"type":"error","name":"ERC721InvalidReceiver","inputs":[{"name":"receiver","type":"address","internalType":"address"}]},{"type":"error","name":"ERC721InvalidSender","inputs":[{"name":"sender","type":"address","internalType":"address"}]},{"type":"error","name":"ERC721NonexistentToken","inputs":[{"name":"tokenId","type":"uint256","internalType":"uint256"}]},{"type":"error","name":"OwnableInvalidOwner","inputs":[{"name":"owner","type":"address","internalType":"address"}]},{"type":"error","name":"OwnableUnauthorizedAccount","inputs":[{"name":"account","type":"address","internalType":"address"}]}],"bytecode":{"object":"0x608060405234801562000010575f80fd5b506040516200168538038062001685833981016040819052620000339162000154565b33604051806040016040528060118152602001702834bc32b636b0b734b0902932b3b4b7b760791b8152506040518060400160405280600681526020016550584c52454760d01b815250815f90816200008d9190620002ac565b5060016200009c8282620002ac565b5050506001600160a01b038116620000cd57604051631e4fbdf760e01b81525f600482015260240160405180910390fd5b620000d881620000ef565b506008620000e78282620002ac565b505062000378565b600680546001600160a01b038381166001600160a01b0319831681179093556040519116919082907f8be0079c531659141344cd1fd0a4f28419497f9722a3daafe3b4186f6b6457e0905f90a35050565b634e487b7160e01b5f52604160045260245ffd5b5f602080838503121562000166575f80fd5b82516001600160401b03808211156200017d575f80fd5b818501915085601f83011262000191575f80fd5b815181811115620001a657620001a662000140565b604051601f8201601f19908116603f01168101908382118183101715620001d157620001d162000140565b816040528281528886848701011115620001e9575f80fd5b5f93505b828410156200020c5784840186015181850187015292850192620001ed565b5f86848301015280965050505050505092915050565b600181811c908216806200023757607f821691505b6020821081036200025657634e487b7160e01b5f52602260045260245ffd5b50919050565b601f821115620002a757805f5260205f20601f840160051c81016020851015620002835750805b601f840160051c820191505b81811015620002a4575f81556001016200028f565b50505b505050565b81516001600160401b03811115620002c857620002c862000140565b620002e081620002d9845462000222565b846200025c565b602080601f83116001811462000316575f8415620002fe5750858301515b5f19600386901b1c1916600185901b17855562000370565b5f85815260208120601f198616915b82811015620003465788860151825594840194600190910190840162000325565b50858210156200036457878501515f19600388901b60f8161c191681555b505060018460011b0185555b505050505050565b6112ff80620003865f395ff3fe608060405234801561000f575f80fd5b506004361061011c575f3560e01c806370a08231116100a9578063b88d4fde1161006e578063b88d4fde14610251578063c87b56dd14610264578063e2c34bd514610277578063e985e9c514610296578063f2fde38b146102a9575f80fd5b806370a082311461020a578063715018a61461021d5780638da5cb5b1461022557806395d89b4114610236578063a22cb4651461023e575f80fd5b806323b872dd116100ef57806323b872dd1461019d57806340c10f19146101b057806342842e0e146101d157806355f804b3146101e45780636352211e146101f7575f80fd5b806301ffc9a71461012057806306fdde0314610148578063081812fc1461015d578063095ea7b314610188575b5f80fd5b61013361012e366004610e05565b6102bc565b60405190151581526020015b60405180910390f35b61015061030d565b60405161013f9190610e6d565b61017061016b366004610e7f565b61039c565b6040516001600160a01b03909116815260200161013f565b61019b610196366004610eb1565b6103c3565b005b61019b6101ab366004610ed9565b6103d2565b6101c36101be366004610eb1565b610460565b60405190815260200161013f565b61019b6101df366004610ed9565b6104e2565b61019b6101f2366004610f12565b610501565b610170610205366004610e7f565b610516565b6101c3610218366004610f7e565b610520565b61019b610565565b6006546001600160a01b0316610170565b610150610578565b61019b61024c366004610f97565b610587565b61019b61025f366004610fe4565b610592565b610150610272366004610e7f565b6105aa565b6101c3610285366004610e7f565b60096020525f908152604090205481565b6101336102a43660046110b9565b61060f565b61019b6102b7366004610f7e565b61063c565b5f6001600160e01b031982166380ac58cd60e01b14806102ec57506001600160e01b03198216635b5e139f60e01b145b8061030757506301ffc9a760e01b6001600160e01b03198316145b92915050565b60605f805461031b906110ea565b80601f0160208091040260200160405190810160405280929190818152602001828054610347906110ea565b80156103925780601f1061036957610100808354040283529160200191610392565b820191905f5260205f20905b81548152906001019060200180831161037557829003601f168201915b5050505050905090565b5f6103a682610679565b505f828152600460205260409020546001600160a01b0316610307565b6103ce8282336106b1565b5050565b6001600160a01b03821661040057604051633250574960e11b81525f60048201526024015b60405180910390fd5b5f61040c8383336106be565b9050836001600160a01b0316816001600160a01b03161461045a576040516364283d7b60e01b81526001600160a01b03808616600483015260248201849052821660448201526064016103f7565b50505050565b5f6104696107b0565b60078054905f61047883611122565b909155505f818152600960205260409020839055905061049883826107dd565b80836001600160a01b03167f25b428dfde728ccfaddad7e29e4ac23c24ed7fd1a6e3e3f91894a9a073f5dfff846040516104d491815260200190565b60405180910390a392915050565b6104fc83838360405180602001604052805f815250610592565b505050565b6105096107b0565b60086104fc82848361118a565b5f61030782610679565b5f6001600160a01b03821661054a576040516322718ad960e21b81525f60048201526024016103f7565b506001600160a01b03165f9081526003602052604090205490565b61056d6107b0565b6105765f6107f6565b565b60606001805461031b906110ea565b6103ce338383610847565b61059d8484846103d2565b61045a338585858561090e565b60606105b582610679565b505f6105bf610a36565b90505f8151116105dd5760405180602001604052805f815250610608565b806105e784610a45565b6040516020016105f8929190611244565b6040516020818303038152906040525b9392505050565b6001600160a01b039182165f90815260056020908152604080832093909416825291909152205460ff1690565b6106446107b0565b6001600160a01b03811661066d57604051631e4fbdf760e01b81525f60048201526024016103f7565b610676816107f6565b50565b5f818152600260205260408120546001600160a01b03168061030757604051637e27328960e01b8152600481018490526024016103f7565b6104fc8383836001610ad5565b5f828152600260205260408120546001600160a01b03908116908316156106ea576106ea818486610bd9565b6001600160a01b03811615610724576107055f855f80610ad5565b6001600160a01b0381165f90815260036020526040902080545f190190555b6001600160a01b03851615610752576001600160a01b0385165f908152600360205260409020805460010190555b5f8481526002602052604080822080546001600160a01b0319166001600160a01b0389811691821790925591518793918516917fddf252ad1be2c89b69c2b068fc378daa952ba7f163c4a11628f55a4df523b3ef91a4949350505050565b6006546001600160a01b031633146105765760405163118cdaa760e01b81523360048201526024016103f7565b6103ce828260405180602001604052805f815250610c3d565b600680546001600160a01b038381166001600160a01b0319831681179093556040519116919082907f8be0079c531659141344cd1fd0a4f28419497f9722a3daafe3b4186f6b6457e0905f90a35050565b6001600160a01b0383166108705760405163a9fbf51f60e01b81525f60048201526024016103f7565b6001600160a01b0382166108a257604051630b61174360e31b81526001600160a01b03831660048201526024016103f7565b6001600160a01b038381165f81815260056020908152604080832094871680845294825291829020805460ff191686151590811790915591519182527f17307eab39ab6107e8899845ad3d59bd9653f200f220920489ca2b5937696c31910160405180910390a3505050565b6001600160a01b0383163b15610a2f57604051630a85bd0160e11b81526001600160a01b0384169063150b7a0290610950908890889087908790600401611272565b6020604051808303815f875af192505050801561098a575060408051601f3d908101601f19168201909252610987918101906112ae565b60015b6109f1573d8080156109b7576040519150601f19603f3d011682016040523d82523d5f602084013e6109bc565b606091505b5080515f036109e957604051633250574960e11b81526001600160a01b03851660048201526024016103f7565b805160208201fd5b6001600160e01b03198116630a85bd0160e11b14610a2d57604051633250574960e11b81526001600160a01b03851660048201526024016103f7565b505b5050505050565b60606008805461031b906110ea565b60605f610a5183610c54565b60010190505f8167ffffffffffffffff811115610a7057610a70610fd0565b6040519080825280601f01601f191660200182016040528015610a9a576020820181803683370190505b5090508181016020015b5f19016f181899199a1a9b1b9c1cb0b131b232b360811b600a86061a8153600a8504945084610aa457509392505050565b8080610ae957506001600160a01b03821615155b15610baa575f610af884610679565b90506001600160a01b03831615801590610b245750826001600160a01b0316816001600160a01b031614155b8015610b375750610b35818461060f565b155b15610b605760405163a9fbf51f60e01b81526001600160a01b03841660048201526024016103f7565b8115610ba85783856001600160a01b0316826001600160a01b03167f8c5be1e5ebec7d5bd14f71427d1e84f3dd0314c0f7b2291e5b200ac8c7c3b92560405160405180910390a45b505b50505f90815260046020526040902080546001600160a01b0319166001600160a01b0392909216919091179055565b610be4838383610d2b565b6104fc576001600160a01b038316610c1257604051637e27328960e01b8152600481018290526024016103f7565b60405163177e802f60e01b81526001600160a01b0383166004820152602481018290526044016103f7565b610c478383610d8f565b6104fc335f85858561090e565b5f8072184f03e93ff9f4daa797ed6e38ed64bf6a1f0160401b8310610c925772184f03e93ff9f4daa797ed6e38ed64bf6a1f0160401b830492506040015b6d04ee2d6d415b85acef81000000008310610cbe576d04ee2d6d415b85acef8100000000830492506020015b662386f26fc100008310610cdc57662386f26fc10000830492506010015b6305f5e1008310610cf4576305f5e100830492506008015b6127108310610d0857612710830492506004015b60648310610d1a576064830492506002015b600a83106103075760010192915050565b5f6001600160a01b03831615801590610d875750826001600160a01b0316846001600160a01b03161480610d645750610d64848461060f565b80610d8757505f828152600460205260409020546001600160a01b038481169116145b949350505050565b6001600160a01b038216610db857604051633250574960e11b81525f60048201526024016103f7565b5f610dc483835f6106be565b90506001600160a01b038116156104fc576040516339e3563760e11b81525f60048201526024016103f7565b6001600160e01b031981168114610676575f80fd5b5f60208284031215610e15575f80fd5b813561060881610df0565b5f5b83811015610e3a578181015183820152602001610e22565b50505f910152565b5f8151808452610e59816020860160208601610e20565b601f01601f19169290920160200192915050565b602081525f6106086020830184610e42565b5f60208284031215610e8f575f80fd5b5035919050565b80356001600160a01b0381168114610eac575f80fd5b919050565b5f8060408385031215610ec2575f80fd5b610ecb83610e96565b946020939093013593505050565b5f805f60608486031215610eeb575f80fd5b610ef484610e96565b9250610f0260208501610e96565b9150604084013590509250925092565b5f8060208385031215610f23575f80fd5b823567ffffffffffffffff80821115610f3a575f80fd5b818501915085601f830112610f4d575f80fd5b813581811115610f5b575f80fd5b866020828501011115610f6c575f80fd5b60209290920196919550909350505050565b5f60208284031215610f8e575f80fd5b61060882610e96565b5f8060408385031215610fa8575f80fd5b610fb183610e96565b915060208301358015158114610fc5575f80fd5b809150509250929050565b634e487b7160e01b5f52604160045260245ffd5b5f805f8060808587031215610ff7575f80fd5b61100085610e96565b935061100e60208601610e96565b925060408501359150606085013567ffffffffffffffff80821115611031575f80fd5b818701915087601f830112611044575f80fd5b81358181111561105657611056610fd0565b604051601f8201601f19908116603f0116810190838211818310171561107e5761107e610fd0565b816040528281528a6020848701011115611096575f80fd5b826020860160208301375f60208483010152809550505050505092959194509250565b5f80604083850312156110ca575f80fd5b6110d383610e96565b91506110e160208401610e96565b90509250929050565b600181811c908216806110fe57607f821691505b60208210810361111c57634e487b7160e01b5f52602260045260245ffd5b50919050565b5f6001820161113f57634e487b7160e01b5f52601160045260245ffd5b5060010190565b601f8211156104fc57805f5260205f20601f840160051c8101602085101561116b5750805b601f840160051c820191505b81811015610a2f575f8155600101611177565b67ffffffffffffffff8311156111a2576111a2610fd0565b6111b6836111b083546110ea565b83611146565b5f601f8411600181146111e7575f85156111d05750838201355b5f19600387901b1c1916600186901b178355610a2f565b5f83815260208120601f198716915b8281101561121657868501358255602094850194600190920191016111f6565b5086821015611232575f1960f88860031b161c19848701351681555b505060018560011b0183555050505050565b5f8351611255818460208801610e20565b835190830190611269818360208801610e20565b01949350505050565b6001600160a01b03858116825284166020820152604081018390526080606082018190525f906112a490830184610e42565b9695505050505050565b5f602082840312156112be575f80fd5b815161060881610df056fea264697066735822122087dd1fad6dade552bdbbd89a58bd7aa716d963b2822d7ace8f70c79bd45e5af464736f6c63430008180033","linkReferences":{}},"methodIdentifiers":{"approve(address,uint256)":"095ea7b3","balanceOf(address)":"70a08231","getApproved(uint256)":"081812fc","isApprovedForAll(address,address)":"e985e9c5","mint(address,uint256)":"40c10f19","name()":"06fdde03","owner()":"8da5cb5b","ownerOf(uint256)":"6352211e","renounceOwnership()":"715018a6","roundByTokenId(uint256)":"e2c34bd5","safeTransferFrom(address,address,uint256)":"42842e0e","safeTransferFrom(address,address,uint256,bytes)":"b88d4fde","setApprovalForAll(address,bool)":"a22cb465","setBaseURI(string)":"55f804b3","supportsInterface(bytes4)":"01ffc9a7","symbol()":"95d89b41","tokenURI(uint256)":"c87b56dd","transferFrom(address,address,uint256)":"23b872dd","transferOwnership(address)":"f2fde38b"},"id":5}