{"abi":[{"type":"constructor","inputs":[],"stateMutability":"nonpayable"},{"type":"function","name":"advanceRound","inputs":[],"outputs":[],"stateMutability":"nonpayable"},{"type":"function","name":"currentRound","inputs":[],"outputs":[{"name":"","type":"uint256","internalType":"uint256"}],"stateMutability":"view"},{"type":"function","name":"owner","inputs":[],"outputs":[{"name":"","type":"address","internalType":"address"}],"stateMutability":"view"},{"type":"function","name":"renounceOwnership","inputs":[],"outputs":[],"stateMutability":"nonpayable"},{"type":"function","name":"selectedPaletteByRound","inputs":[{"name":"","type":"uint256","internalType":"uint256"}],"outputs":[{"name":"","type":"uint256","internalType":"uint256"}],"stateMutability":"view"},{"type":"function","name":"selectedRegionByRound","inputs":[{"name":"","type":"uint256","internalType":"uint256"}],"outputs":[{"name":"","type":"bytes32","internalType":"bytes32"}],"stateMutability":"view"},{"type":"function","name":"setSelectedPalette","inputs":[{"name":"paletteId","type":"uint256","internalType":"uint256"}],"outputs":[],"stateMutability":"nonpayable"},{"type":"function","name":"setSelectedRegion","inputs":[{"name":"regionId","type":"bytes32","internalType":"bytes32"}],"outputs":[],"stateMutability":"nonpayable"},{"type":"function","name":"transferOwnership","inputs":[{"name":"newOwner","type":"address","internalType":"address"}],"outputs":[],"stateMutability":"nonpayable"},{"type":"event","name":"OwnershipTransferred","inputs":[{"name":"previousOwner","type":"address","indexed":true,"internalType":"address"},{"name":"newOwner","type":"address","indexed":true,"internalType":"address"}],"anonymous":false},{"type":"event","name":"PaletteSelected","inputs":[{"name":"roundId","type":"uint256","indexed":true,"internalType":"uint256"},{"name":"paletteId","type":"uint256","indexed":false,"internalType":"uint256"}],"anonymous":false},{"type":"event","name":"RegionSelected","inputs":[{"name":"roundId","type":"uint256","indexed":true,"internalType":"uint256"},{"name":"regionId","type":"bytes32","indexed":false,"internalType":"bytes32"}],"anonymous":false},{"type":"event","name":"RoundCreated","inputs":[{"name":"roundId","type":"uint256","indexed":true,"internalType":"uint256"}],"anonymous":false},{"type":"error","name":"OwnableInvalidOwner","inputs":[{"name":"owner","type":"address","internalType":"address"}]},{"type":"error","name":"OwnableUnauthorizedAccount","inputs":[{"name":"account","type":"address","internalType":"address"}]}],"bytecode":{"object":"0x6080604052348015600e575f80fd5b503380603357604051631e4fbdf760e01b81525f600482015260240160405180910390fd5b603a81603f565b50608e565b5f80546001600160a01b038381166001600160a01b0319831681178455604051919092169283917f8be0079c531659141344cd1fd0a4f28419497f9722a3daafe3b4186f6b6457e09190a35050565b6103b78061009b5f395ff3fe608060405234801561000f575f80fd5b5060043610610090575f3560e01c8063715018a611610063578063715018a6146100f65780638a19c8bc146100fe5780638da5cb5b14610107578063dcf1b44314610121578063f2fde38b14610140575f80fd5b80631ba9998b14610094578063267521861461009e5780632768411f146100d05780635ebfc0f7146100e3575b5f80fd5b61009c610153565b005b6100bd6100ac366004610319565b60036020525f908152604090205481565b6040519081526020015b60405180910390f35b61009c6100de366004610319565b61019c565b61009c6100f1366004610319565b6101f8565b61009c610249565b6100bd60015481565b5f546040516001600160a01b0390911681526020016100c7565b6100bd61012f366004610319565b60026020525f908152604090205481565b61009c61014e366004610330565b61025c565b61015b61029e565b60018054905f61016a8361035d565b90915550506001546040517f7fddfa210f6e5a9027db15718595d09dcd503a910b9b89a4384da4b461618f4a905f90a2565b6101a461029e565b600180545f9081526003602052604090819020839055905490517ff129f6097694da8a6fd51b132d83dc31a11a1b36ecad5ee0a4df403e25e9c1dd906101ed9084815260200190565b60405180910390a250565b61020061029e565b600180545f9081526002602052604090819020839055905490517f99828794c5018f762b040bb10daae15ee6d9f49f42bb73a5388a3772ce83aad2906101ed9084815260200190565b61025161029e565b61025a5f6102ca565b565b61026461029e565b6001600160a01b03811661029257604051631e4fbdf760e01b81525f60048201526024015b60405180910390fd5b61029b816102ca565b50565b5f546001600160a01b0316331461025a5760405163118cdaa760e01b8152336004820152602401610289565b5f80546001600160a01b038381166001600160a01b0319831681178455604051919092169283917f8be0079c531659141344cd1fd0a4f28419497f9722a3daafe3b4186f6b6457e09190a35050565b5f60208284031215610329575f80fd5b5035919050565b5f60208284031215610340575f80fd5b81356001600160a01b0381168114610356575f80fd5b9392505050565b5f6001820161037a57634e487b7160e01b5f52601160045260245ffd5b506001019056fea264697066735822122057074b2cbb8433cf1735e5c54e5576caa9a24f86d220a6ed3f24bdf637b8507164736f6c634300081a0033","linkReferences":{}},"methodIdentifiers":{"advanceRound()":"1ba9998b","currentRound()":"8a19c8bc","owner()":"8da5cb5b","renounceOwnership()":"715018a6","selectedPaletteByRound(uint256)":"26752186","selectedRegionByRound(uint256)":"dcf1b443","setSelectedPalette(uint256)":"2768411f","setSelectedRegion(bytes32)":"5ebfc0f7","transferOwnership(address)":"f2fde38b"},"id":3}