{"abi":[{"type":"constructor","inputs":[{"name":"_treasury","type":"address","internalType":"address"},{"name":"_devWallet","type":"address","internalType":"address"},{"name":"_prizePool","type":"address","internalType":"address"},{"name":"_cfa","type":"address","internalType":"address"}],"stateMutability":"nonpayable"},{"type":"function","name":"CANVAS_SIZE","inputs":[],"outputs":[{"name":"","type":"uint256","internalType":"uint256"}],"stateMutability":"view"},{"type":"function","name":"CFA_FORWARDER","inputs":[],"outputs":[{"name":"","type":"address","internalType":"address"}],"stateMutability":"view"},{"type":"function","name":"G_TOKEN","inputs":[],"outputs":[{"name":"","type":"address","internalType":"address"}],"stateMutability":"view"},{"type":"function","name":"MIN_ARMOR_FLOW_RATE","inputs":[],"outputs":[{"name":"","type":"int96","internalType":"int96"}],"stateMutability":"view"},{"type":"function","name":"PLACEMENT_FEE","inputs":[],"outputs":[{"name":"","type":"uint256","internalType":"uint256"}],"stateMutability":"view"},{"type":"function","name":"canImplementInterfaceForAddress","inputs":[{"name":"interfaceHash","type":"bytes32","internalType":"bytes32"},{"name":"","type":"address","internalType":"address"}],"outputs":[{"name":"","type":"bytes32","internalType":"bytes32"}],"stateMutability":"pure"},{"type":"function","name":"cfa","inputs":[],"outputs":[{"name":"","type":"address","internalType":"address"}],"stateMutability":"view"},{"type":"function","name":"devWallet","inputs":[],"outputs":[{"name":"","type":"address","internalType":"address"}],"stateMutability":"view"},{"type":"function","name":"isPixelArmored","inputs":[{"name":"x","type":"uint256","internalType":"uint256"},{"name":"y","type":"uint256","internalType":"uint256"}],"outputs":[{"name":"","type":"bool","internalType":"bool"}],"stateMutability":"view"},{"type":"function","name":"owner","inputs":[],"outputs":[{"name":"","type":"address","internalType":"address"}],"stateMutability":"view"},{"type":"function","name":"pause","inputs":[],"outputs":[],"stateMutability":"nonpayable"},{"type":"function","name":"paused","inputs":[],"outputs":[{"name":"","type":"bool","internalType":"bool"}],"stateMutability":"view"},{"type":"function","name":"pixelOwner","inputs":[{"name":"","type":"uint256","internalType":"uint256"}],"outputs":[{"name":"","type":"address","internalType":"address"}],"stateMutability":"view"},{"type":"function","name":"positionOf","inputs":[{"name":"x","type":"uint256","internalType":"uint256"},{"name":"y","type":"uint256","internalType":"uint256"}],"outputs":[{"name":"","type":"uint256","internalType":"uint256"}],"stateMutability":"pure"},{"type":"function","name":"prizePool","inputs":[],"outputs":[{"name":"","type":"address","internalType":"address"}],"stateMutability":"view"},{"type":"function","name":"renounceOwnership","inputs":[],"outputs":[],"stateMutability":"nonpayable"},{"type":"function","name":"setCfa","inputs":[{"name":"_cfa","type":"address","internalType":"address"}],"outputs":[],"stateMutability":"nonpayable"},{"type":"function","name":"setDevWallet","inputs":[{"name":"_devWallet","type":"address","internalType":"address"}],"outputs":[],"stateMutability":"nonpayable"},{"type":"function","name":"setPrizePool","inputs":[{"name":"_prizePool","type":"address","internalType":"address"}],"outputs":[],"stateMutability":"nonpayable"},{"type":"function","name":"setTreasury","inputs":[{"name":"_treasury","type":"address","internalType":"address"}],"outputs":[],"stateMutability":"nonpayable"},{"type":"function","name":"tokensReceived","inputs":[{"name":"","type":"address","internalType":"address"},{"name":"from","type":"address","internalType":"address"},{"name":"to","type":"address","internalType":"address"},{"name":"amount","type":"uint256","internalType":"uint256"},{"name":"userData","type":"bytes","internalType":"bytes"},{"name":"","type":"bytes","internalType":"bytes"}],"outputs":[],"stateMutability":"nonpayable"},{"type":"function","name":"transferOwnership","inputs":[{"name":"newOwner","type":"address","internalType":"address"}],"outputs":[],"stateMutability":"nonpayable"},{"type":"function","name":"treasury","inputs":[],"outputs":[{"name":"","type":"address","internalType":"address"}],"stateMutability":"view"},{"type":"function","name":"unpause","inputs":[],"outputs":[],"stateMutability":"nonpayable"},{"type":"event","name":"CfaUpdated","inputs":[{"name":"previous","type":"address","indexed":true,"internalType":"address"},{"name":"current","type":"address","indexed":true,"internalType":"address"}],"anonymous":false},{"type":"event","name":"DevWalletUpdated","inputs":[{"name":"previous","type":"address","indexed":true,"internalType":"address"},{"name":"current","type":"address","indexed":true,"internalType":"address"}],"anonymous":false},{"type":"event","name":"OwnershipTransferred","inputs":[{"name":"previousOwner","type":"address","indexed":true,"internalType":"address"},{"name":"newOwner","type":"address","indexed":true,"internalType":"address"}],"anonymous":false},{"type":"event","name":"Paused","inputs":[{"name":"account","type":"address","indexed":false,"internalType":"address"}],"anonymous":false},{"type":"event","name":"PixelPlaced","inputs":[{"name":"user","type":"address","indexed":true,"internalType":"address"},{"name":"position","type":"uint256","indexed":true,"internalType":"uint256"},{"name":"color","type":"uint8","indexed":false,"internalType":"uint8"},{"name":"armored","type":"bool","indexed":false,"internalType":"bool"}],"anonymous":false},{"type":"event","name":"PrizePoolUpdated","inputs":[{"name":"previous","type":"address","indexed":true,"internalType":"address"},{"name":"current","type":"address","indexed":true,"internalType":"address"}],"anonymous":false},{"type":"event","name":"TreasuryUpdated","inputs":[{"name":"previous","type":"address","indexed":true,"internalType":"address"},{"name":"current","type":"address","indexed":true,"internalType":"address"}],"anonymous":false},{"type":"event","name":"Unpaused","inputs":[{"name":"account","type":"address","indexed":false,"internalType":"address"}],"anonymous":false},{"type":"error","name":"CoordinatesOutOfBounds","inputs":[]},{"type":"error","name":"EnforcedPause","inputs":[]},{"type":"error","name":"ExpectedPause","inputs":[]},{"type":"error","name":"InsufficientPayment","inputs":[]},{"type":"error","name":"InvalidAddress","inputs":[]},{"type":"error","name":"InvalidUserDataLength","inputs":[]},{"type":"error","name":"OnlyGToken","inputs":[]},{"type":"error","name":"OwnableInvalidOwner","inputs":[{"name":"owner","type":"address","internalType":"address"}]},{"type":"error","name":"OwnableUnauthorizedAccount","inputs":[{"name":"account","type":"address","internalType":"address"}]},{"type":"error","name":"PixelArmored","inputs":[]},{"type":"error","name":"ReentrancyGuardReentrantCall","inputs":[]},{"type":"error","name":"TransferFailed","inputs":[]}],"bytecode":{"object":"0x608060405234801562000010575f80fd5b50604051620013f3380380620013f38339810160408190526200003391620002d4565b33806200005a57604051631e4fbdf760e01b81525f60048201526024015b60405180910390fd5b62000065816200014b565b5060017f9b779b17422d0df92223018b32b4d1fa46e071723d6817e2486d003becc55f00556001600160a01b0384161580620000a857506001600160a01b038316155b80620000bb57506001600160a01b038216155b80620000ce57506001600160a01b038116155b15620000ed5760405163e6c4247b60e01b815260040160405180910390fd5b600280546001600160a01b038087166001600160a01b03199283161790925560038054868416908316179055600480548584169083161790556005805492841692909116919091179055620001416200019a565b505050506200035c565b5f80546001600160a01b038381166001600160a01b0319831681178455604051919092169283917f8be0079c531659141344cd1fd0a4f28419497f9722a3daafe3b4186f6b6457e09190a35050565b60405130602482018190527fb281fc8c12954d22544db45de3159a39272895b169a852b314f9cc762e44c53b604483015260648201525f90731820a4b7618bde71dce8cdc73aab6c95905fad249060840160408051601f198184030181529181526020820180516001600160e01b03166329965a1d60e01b179052516200022291906200032e565b5f604051808303815f865af19150503d805f81146200025d576040519150601f19603f3d011682016040523d82523d5f602084013e62000262565b606091505b5050905080620002b55760405162461bcd60e51b815260206004820152601b60248201527f4552433138323020726567697374726174696f6e206661696c65640000000000604482015260640162000051565b50565b80516001600160a01b0381168114620002cf575f80fd5b919050565b5f805f8060808587031215620002e8575f80fd5b620002f385620002b8565b93506200030360208601620002b8565b92506200031360408601620002b8565b91506200032360608601620002b8565b905092959194509250565b5f82515f5b818110156200034f576020818601810151858301520162000333565b505f920191825250919050565b611089806200036a5f395ff3fe608060405234801561000f575f80fd5b5060043610610152575f3560e01c80635c975abb116100bf5780638da5cb5b116100795780638da5cb5b146102e75780638ea5220f146102f7578063dd15568f1461030a578063e4e464b31461031d578063f0f4426014610330578063f2fde38b14610343575f80fd5b80635c975abb1461028b57806361d027b3146102a85780636960d8d6146102bb578063715018a6146102c4578063719ce73e146102cc5780638456cb59146102df575f80fd5b8063229c35bf11610110578063229c35bf14610205578063249cb3fa1461022d578063336c6d391461024e5780633ab3244a146102615780633f4ba83a146102705780634b621ae714610278575f80fd5b806223de29146101565780631054df8c1461016b578063182d3f581461019b5780631859f4d8146101b65780631f53ac02146101d15780632231f6c6146101e4575b5f80fd5b610169610164366004610e58565b610356565b005b60055461017e906001600160a01b031681565b6040516001600160a01b0390911681526020015b60405180910390f35b61017e7362b8b11039fcfe5ab0c56e502b1c372a3d2a9c7a81565b61017e73cfa132e353cb4e398080b9700609bb008eceb12581565b6101696101df366004610efc565b61057c565b6101f266291e8f1dca0bda81565b604051600b9190910b8152602001610192565b61017e610213366004610f15565b60016020525f90815260409020546001600160a01b031681565b61024061023b366004610f2c565b6105fc565b604051908152602001610192565b61016961025c366004610efc565b61066d565b610240670de0b6b3a764000081565b6101696106ed565b610169610286366004610efc565b6106ff565b5f54600160a01b900460ff165b6040519015158152602001610192565b60025461017e906001600160a01b031681565b61024061020081565b61016961077f565b60045461017e906001600160a01b031681565b610169610790565b5f546001600160a01b031661017e565b60035461017e906001600160a01b031681565b610240610318366004610f56565b6107a0565b61029861032b366004610f56565b6107ef565b61016961033e366004610efc565b610861565b610169610351366004610efc565b6108e1565b61035e610923565b61036661094d565b337362b8b11039fcfe5ab0c56e502b1c372a3d2a9c7a1461039a576040516310e98b7160e21b815260040160405180910390fd5b306001600160a01b0387160361054957670de0b6b3a76400008510156103d35760405163cd1c886760e01b815260040160405180910390fd5b600583146103f4576040516342f6e2a360e11b815260040160405180910390fd5b5f805f610401878761097b565b9250925092506102008361ffff1610158061042257506102008261ffff1610155b156104405760405163bb8683c960e01b815260040160405180910390fd5b5f61045161020061ffff8516610f8a565b61045f9061ffff8616610fa1565b5f818152600160205260409020549091506001600160a01b0316801580159061049557506104958561ffff168561ffff166107ef565b156104b357604051631537ef9d60e21b815260040160405180910390fd5b5f82815260016020526040902080546001600160a01b0319166001600160a01b038e161790556104e28a610a2b565b5f6104ec8d610b1b565b9050828d6001600160a01b03167f8f4c6222b7fb8cb0ae5669803a4858c1b5ba05d9933cd2e371455ef92d8d6174868460405161053a92919060ff9290921682521515602082015260400190565b60405180910390a35050505050505b61057260017f9b779b17422d0df92223018b32b4d1fa46e071723d6817e2486d003becc55f0055565b5050505050505050565b610584610bc4565b6001600160a01b0381166105ab5760405163e6c4247b60e01b815260040160405180910390fd5b600380546001600160a01b038381166001600160a01b0319831681179093556040519116919082907f0db17895a9d092fb3ca24d626f2150dd80c185b0706b36f1040ee239f56cb871905f90a35050565b5f7fb281fc8c12954d22544db45de3159a39272895b169a852b314f9cc762e44c53b83036106645760405173455243313832305f4143434550545f4d4147494360601b6020820152603401604051602081830303815290604052805190602001209050610667565b505f5b92915050565b610675610bc4565b6001600160a01b03811661069c5760405163e6c4247b60e01b815260040160405180910390fd5b600480546001600160a01b038381166001600160a01b0319831681179093556040519116919082907feb5dc9c1a346ed3e3bae2d1b244cf3b5b54010020ad16c8d7c63d96a19729ae3905f90a35050565b6106f5610bc4565b6106fd610bf0565b565b610707610bc4565b6001600160a01b03811661072e5760405163e6c4247b60e01b815260040160405180910390fd5b600580546001600160a01b038381166001600160a01b0319831681179093556040519116919082907f9b044fd6c488c926b52618172efbbe163d7377785047eb1ae930f7ea1327b8a3905f90a35050565b610787610bc4565b6106fd5f610c44565b610798610bc4565b6106fd610c93565b5f610200831015806107b457506102008210155b156107d25760405163bb8683c960e01b815260040160405180910390fd5b6107de61020083610f8a565b6107e89084610fa1565b9392505050565b5f6102008310158061080357506102008210155b1561080f57505f610667565b5f61081c61020084610f8a565b6108269085610fa1565b5f818152600160205260409020549091506001600160a01b03168061084f575f92505050610667565b61085881610b1b565b95945050505050565b610869610bc4565b6001600160a01b0381166108905760405163e6c4247b60e01b815260040160405180910390fd5b600280546001600160a01b038381166001600160a01b0319831681179093556040519116919082907f4ab5be82436d353e61ca18726e984e561f5c1cc7c6d38b29d2553c790434705a905f90a35050565b6108e9610bc4565b6001600160a01b03811661091757604051631e4fbdf760e01b81525f60048201526024015b60405180910390fd5b61092081610c44565b50565b5f54600160a01b900460ff16156106fd5760405163d93c066560e01b815260040160405180910390fd5b610955610cd5565b60027f9b779b17422d0df92223018b32b4d1fa46e071723d6817e2486d003becc55f0055565b5f805f8484600181811061099157610991610fb4565b919091013560f81c9050600886865f816109ad576109ad610fb4565b919091013560f81c90911b9190911793508590508460038181106109d3576109d3610fb4565b919091013560f81c90506008868660028181106109f2576109f2610fb4565b919091013560f81c90911b919091179250859050846004818110610a1857610a18610fb4565b9497939650509092013560f81c92509050565b5f612710610a3b611f4084610f8a565b610a459190610fc8565b90505f612710610a576103e885610f8a565b610a619190610fc8565b90505f612710610a736103e886610f8a565b610a7d9190610fc8565b90508215610ab157600454610ab1907362b8b11039fcfe5ab0c56e502b1c372a3d2a9c7a906001600160a01b031685610d17565b8115610ae357600254610ae3907362b8b11039fcfe5ab0c56e502b1c372a3d2a9c7a906001600160a01b031684610d17565b8015610b1557600354610b15907362b8b11039fcfe5ab0c56e502b1c372a3d2a9c7a906001600160a01b031683610d17565b50505050565b600554604051631cd43d1160e31b81527362b8b11039fcfe5ab0c56e502b1c372a3d2a9c7a60048201526001600160a01b0383811660248301523060448301525f92839291169063e6a1e88890606401608060405180830381865afa158015610b86573d5f803e3d5ffd5b505050506040513d601f19601f82011682018060405250810190610baa9190610fe7565b505066291e8f1dca0bda600b9190910b1215949350505050565b5f546001600160a01b031633146106fd5760405163118cdaa760e01b815233600482015260240161090e565b610bf8610dcf565b5f805460ff60a01b191690557f5db9ee0a495bf2e6ff9c91a7834c1ba4fdd244a5e8aa4e537bd38aeae4b073aa335b6040516001600160a01b03909116815260200160405180910390a1565b5f80546001600160a01b038381166001600160a01b0319831681178455604051919092169283917f8be0079c531659141344cd1fd0a4f28419497f9722a3daafe3b4186f6b6457e09190a35050565b610c9b610923565b5f805460ff60a01b1916600160a01b1790557f62e78cea01bee320cd4e420270b5ea74000d11b0c9f74754ebdbfc544b05a258610c273390565b7f9b779b17422d0df92223018b32b4d1fa46e071723d6817e2486d003becc55f00546002036106fd57604051633ee5aeb560e01b815260040160405180910390fd5b6040516001600160a01b038381166024830152604482018390525f919085169060640160408051601f198184030181529181526020820180516001600160e01b031663a9059cbb60e01b17905251610d6f9190611027565b5f604051808303815f865af19150503d805f8114610da8576040519150601f19603f3d011682016040523d82523d5f602084013e610dad565b606091505b5050905080610b15576040516312171d8360e31b815260040160405180910390fd5b5f54600160a01b900460ff166106fd57604051638dfc202b60e01b815260040160405180910390fd5b80356001600160a01b0381168114610e0e575f80fd5b919050565b5f8083601f840112610e23575f80fd5b50813567ffffffffffffffff811115610e3a575f80fd5b602083019150836020828501011115610e51575f80fd5b9250929050565b5f805f805f805f8060c0898b031215610e6f575f80fd5b610e7889610df8565b9750610e8660208a01610df8565b9650610e9460408a01610df8565b955060608901359450608089013567ffffffffffffffff80821115610eb7575f80fd5b610ec38c838d01610e13565b909650945060a08b0135915080821115610edb575f80fd5b50610ee88b828c01610e13565b999c989b5096995094979396929594505050565b5f60208284031215610f0c575f80fd5b6107e882610df8565b5f60208284031215610f25575f80fd5b5035919050565b5f8060408385031215610f3d575f80fd5b82359150610f4d60208401610df8565b90509250929050565b5f8060408385031215610f67575f80fd5b50508035926020909101359150565b634e487b7160e01b5f52601160045260245ffd5b808202811582820484141761066757610667610f76565b8082018082111561066757610667610f76565b634e487b7160e01b5f52603260045260245ffd5b5f82610fe257634e487b7160e01b5f52601260045260245ffd5b500490565b5f805f8060808587031215610ffa575f80fd5b84519350602085015180600b0b8114611011575f80fd5b6040860151606090960151949790965092505050565b5f82515f5b81811015611046576020818601810151858301520161102c565b505f92019182525091905056fea2646970667358221220ac30cba8699f5ab946efbf1509f506df54e111833d6d11ce81d426bfcea4399964736f6c63430008180033","linkReferences":{}},"methodIdentifiers":{"CANVAS_SIZE()":"6960d8d6","CFA_FORWARDER()":"1859f4d8","G_TOKEN()":"182d3f58","MIN_ARMOR_FLOW_RATE()":"2231f6c6","PLACEMENT_FEE()":"3ab3244a","canImplementInterfaceForAddress(bytes32,address)":"249cb3fa","cfa()":"1054df8c","devWallet()":"8ea5220f","isPixelArmored(uint256,uint256)":"e4e464b3","owner()":"8da5cb5b","pause()":"8456cb59","paused()":"5c975abb","pixelOwner(uint256)":"229c35bf","positionOf(uint256,uint256)":"dd15568f","prizePool()":"719ce73e","renounceOwnership()":"715018a6","setCfa(address)":"4b621ae7","setDevWallet(address)":"1f53ac02","setPrizePool(address)":"336c6d39","setTreasury(address)":"f0f44260","tokensReceived(address,address,address,uint256,bytes,bytes)":"0023de29","transferOwnership(address)":"f2fde38b","treasury()":"61d027b3","unpause()":"3f4ba83a"},"id":1}