{"abi":[{"type":"constructor","inputs":[{"name":"_token","type":"address","internalType":"address"},{"name":"_canvas","type":"address","internalType":"address"}],"stateMutability":"nonpayable"},{"type":"function","name":"advanceRound","inputs":[],"outputs":[],"stateMutability":"nonpayable"},{"type":"function","name":"canvas","inputs":[],"outputs":[{"name":"","type":"address","internalType":"address"}],"stateMutability":"view"},{"type":"function","name":"currentRound","inputs":[],"outputs":[{"name":"","type":"uint256","internalType":"uint256"}],"stateMutability":"view"},{"type":"function","name":"distributeRewards","inputs":[{"name":"winners","type":"address[]","internalType":"address[]"},{"name":"amounts","type":"uint256[]","internalType":"uint256[]"}],"outputs":[],"stateMutability":"nonpayable"},{"type":"function","name":"owner","inputs":[],"outputs":[{"name":"","type":"address","internalType":"address"}],"stateMutability":"view"},{"type":"function","name":"renounceOwnership","inputs":[],"outputs":[],"stateMutability":"nonpayable"},{"type":"function","name":"setCanvas","inputs":[{"name":"_canvas","type":"address","internalType":"address"}],"outputs":[],"stateMutability":"nonpayable"},{"type":"function","name":"token","inputs":[],"outputs":[{"name":"","type":"address","internalType":"address"}],"stateMutability":"view"},{"type":"function","name":"transferOwnership","inputs":[{"name":"newOwner","type":"address","internalType":"address"}],"outputs":[],"stateMutability":"nonpayable"},{"type":"event","name":"CanvasUpdated","inputs":[{"name":"previous","type":"address","indexed":true,"internalType":"address"},{"name":"current","type":"address","indexed":true,"internalType":"address"}],"anonymous":false},{"type":"event","name":"OwnershipTransferred","inputs":[{"name":"previousOwner","type":"address","indexed":true,"internalType":"address"},{"name":"newOwner","type":"address","indexed":true,"internalType":"address"}],"anonymous":false},{"type":"event","name":"RewardsDistributed","inputs":[{"name":"roundId","type":"uint256","indexed":true,"internalType":"uint256"},{"name":"winners","type":"address[]","indexed":false,"internalType":"address[]"},{"name":"amounts","type":"uint256[]","indexed":false,"internalType":"uint256[]"}],"anonymous":false},{"type":"event","name":"RoundAdvanced","inputs":[{"name":"previousRound","type":"uint256","indexed":true,"internalType":"uint256"},{"name":"newRound","type":"uint256","indexed":true,"internalType":"uint256"}],"anonymous":false},{"type":"error","name":"ArrayLengthMismatch","inputs":[]},{"type":"error","name":"InvalidAddress","inputs":[]},{"type":"error","name":"OwnableInvalidOwner","inputs":[{"name":"owner","type":"address","internalType":"address"}]},{"type":"error","name":"OwnableUnauthorizedAccount","inputs":[{"name":"account","type":"address","internalType":"address"}]},{"type":"error","name":"ReentrancyGuardReentrantCall","inputs":[]},{"type":"error","name":"TransferFailed","inputs":[]}],"bytecode":{"object":"0x60a060405234801561000f575f80fd5b506040516108e23803806108e283398101604081905261002e9161013a565b338061005357604051631e4fbdf760e01b81525f600482015260240160405180910390fd5b61005c816100d0565b5060017f9b779b17422d0df92223018b32b4d1fa46e071723d6817e2486d003becc55f00556001600160a01b0382166100a85760405163e6c4247b60e01b815260040160405180910390fd5b6001600160a01b03918216608052600180546001600160a01b0319169190921617905561016b565b5f80546001600160a01b038381166001600160a01b0319831681178455604051919092169283917f8be0079c531659141344cd1fd0a4f28419497f9722a3daafe3b4186f6b6457e09190a35050565b80516001600160a01b0381168114610135575f80fd5b919050565b5f806040838503121561014b575f80fd5b6101548361011f565b91506101626020840161011f565b90509250929050565b60805161075861018a5f395f818161013701526101b801526107585ff3fe608060405234801561000f575f80fd5b5060043610610090575f3560e01c80638da5cb5b116100635780638da5cb5b146100d55780639b8e9b5e146100f9578063a064f1091461010c578063f2fde38b1461011f578063fc0c546a14610132575f80fd5b8063143ba4f3146100945780631ba9998b146100a9578063715018a6146100b15780638a19c8bc146100b9575b5f80fd5b6100a76100a23660046105a2565b610159565b005b6100a7610294565b6100a76102e2565b6100c260025481565b6040519081526020015b60405180910390f35b5f546001600160a01b03165b6040516001600160a01b0390911681526020016100cc565b6001546100e1906001600160a01b031681565b6100a761011a366004610624565b6102f5565b6100a761012d366004610624565b610375565b6100e17f000000000000000000000000000000000000000000000000000000000000000081565b6101616103b7565b6101696103e3565b8281146101895760405163512509d360e11b815260040160405180910390fd5b5f5b83811015610224575f8383838181106101a6576101a6610644565b90506020020135111561021c5761021c7f00000000000000000000000000000000000000000000000000000000000000008686848181106101e9576101e9610644565b90506020020160208101906101fe9190610624565b85858581811061021057610210610644565b90506020020135610411565b60010161018b565b506002547fac9fe8ad7f55eac03284399116ecafc104f10459773f4cdf47063c46e5be335a8585858560405161025d9493929190610658565b60405180910390a261028e60017f9b779b17422d0df92223018b32b4d1fa46e071723d6817e2486d003becc55f0055565b50505050565b61029c6103b7565b600280549081905f6102ad836106d2565b909155505060025460405182907fed61a2d4b614cbd5677b44533d7c136e648e6d1d48f11bc307e8269df0f0ba96905f90a350565b6102ea6103b7565b6102f35f6104c9565b565b6102fd6103b7565b6001600160a01b0381166103245760405163e6c4247b60e01b815260040160405180910390fd5b600180546001600160a01b038381166001600160a01b0319831681179093556040519116919082907f60f31506da263a21b8a0137b7f1a71ed0eb5b248c0b7a5d7d8e8468171c8ad3b905f90a35050565b61037d6103b7565b6001600160a01b0381166103ab57604051631e4fbdf760e01b81525f60048201526024015b60405180910390fd5b6103b4816104c9565b50565b5f546001600160a01b031633146102f35760405163118cdaa760e01b81523360048201526024016103a2565b6103eb610518565b60027f9b779b17422d0df92223018b32b4d1fa46e071723d6817e2486d003becc55f0055565b6040516001600160a01b038381166024830152604482018390525f919085169060640160408051601f198184030181529181526020820180516001600160e01b031663a9059cbb60e01b1790525161046991906106f6565b5f604051808303815f865af19150503d805f81146104a2576040519150601f19603f3d011682016040523d82523d5f602084013e6104a7565b606091505b505090508061028e576040516312171d8360e31b815260040160405180910390fd5b5f80546001600160a01b038381166001600160a01b0319831681178455604051919092169283917f8be0079c531659141344cd1fd0a4f28419497f9722a3daafe3b4186f6b6457e09190a35050565b7f9b779b17422d0df92223018b32b4d1fa46e071723d6817e2486d003becc55f00546002036102f357604051633ee5aeb560e01b815260040160405180910390fd5b5f8083601f84011261056a575f80fd5b50813567ffffffffffffffff811115610581575f80fd5b6020830191508360208260051b850101111561059b575f80fd5b9250929050565b5f805f80604085870312156105b5575f80fd5b843567ffffffffffffffff808211156105cc575f80fd5b6105d88883890161055a565b909650945060208701359150808211156105f0575f80fd5b506105fd8782880161055a565b95989497509550505050565b80356001600160a01b038116811461061f575f80fd5b919050565b5f60208284031215610634575f80fd5b61063d82610609565b9392505050565b634e487b7160e01b5f52603260045260245ffd5b604080825281018490525f8560608301825b87811015610698576001600160a01b0361068384610609565b1682526020928301929091019060010161066a565b5083810360208501528481526001600160fb1b038511156106b7575f80fd5b8460051b915081866020830137016020019695505050505050565b5f600182016106ef57634e487b7160e01b5f52601160045260245ffd5b5060010190565b5f82515f5b8181101561071557602081860181015185830152016106fb565b505f92019182525091905056fea2646970667358221220ed08519be60ccaaab326ff9deefbdce50c7a1f51ff4c6a8e24b85297ef4264c264736f6c63430008180033","linkReferences":{}},"methodIdentifiers":{"advanceRound()":"1ba9998b","canvas()":"9b8e9b5e","currentRound()":"8a19c8bc","distributeRewards(address[],uint256[])":"143ba4f3","owner()":"8da5cb5b","renounceOwnership()":"715018a6","setCanvas(address)":"a064f109","token()":"fc0c546a","transferOwnership(address)":"f2fde38b"},"id":4}