{"abi":[{"type":"constructor","inputs":[{"name":"configFilePath","type":"string","internalType":"string"},{"name":"writeToFile","type":"bool","internalType":"bool"}],"stateMutability":"nonpayable"},{"type":"function","name":"exists","inputs":[{"name":"key","type":"string","internalType":"string"}],"outputs":[{"name":"","type":"bool","internalType":"bool"}],"stateMutability":"view"},{"type":"function","name":"exists","inputs":[{"name":"chain_id","type":"uint256","internalType":"uint256"},{"name":"key","type":"string","internalType":"string"}],"outputs":[{"name":"","type":"bool","internalType":"bool"}],"stateMutability":"view"},{"type":"function","name":"get","inputs":[{"name":"key","type":"string","internalType":"string"}],"outputs":[{"name":"","type":"tuple","internalType":"struct Variable","components":[{"name":"ty","type":"tuple","internalType":"struct Type","components":[{"name":"kind","type":"uint8","internalType":"enum TypeKind"},{"name":"isArray","type":"bool","internalType":"bool"}]},{"name":"data","type":"bytes","internalType":"bytes"}]}],"stateMutability":"view"},{"type":"function","name":"get","inputs":[{"name":"chain_id","type":"uint256","internalType":"uint256"},{"name":"key","type":"string","internalType":"string"}],"outputs":[{"name":"","type":"tuple","internalType":"struct Variable","components":[{"name":"ty","type":"tuple","internalType":"struct Type","components":[{"name":"kind","type":"uint8","internalType":"enum TypeKind"},{"name":"isArray","type":"bool","internalType":"bool"}]},{"name":"data","type":"bytes","internalType":"bytes"}]}],"stateMutability":"view"},{"type":"function","name":"getChainIds","inputs":[],"outputs":[{"name":"","type":"uint256[]","internalType":"uint256[]"}],"stateMutability":"view"},{"type":"function","name":"getRpcUrl","inputs":[],"outputs":[{"name":"","type":"string","internalType":"string"}],"stateMutability":"view"},{"type":"function","name":"getRpcUrl","inputs":[{"name":"chainId","type":"uint256","internalType":"uint256"}],"outputs":[{"name":"","type":"string","internalType":"string"}],"stateMutability":"view"},{"type":"function","name":"resolveChainId","inputs":[{"name":"aliasOrId","type":"string","internalType":"string"}],"outputs":[{"name":"","type":"uint256","internalType":"uint256"}],"stateMutability":"view"},{"type":"function","name":"set","inputs":[{"name":"chainId","type":"uint256","internalType":"uint256"},{"name":"key","type":"string","internalType":"string"},{"name":"value","type":"int256","internalType":"int256"}],"outputs":[],"stateMutability":"nonpayable"},{"type":"function","name":"set","inputs":[{"name":"chainId","type":"uint256","internalType":"uint256"},{"name":"key","type":"string","internalType":"string"},{"name":"value","type":"bytes32[]","internalType":"bytes32[]"}],"outputs":[],"stateMutability":"nonpayable"},{"type":"function","name":"set","inputs":[{"name":"chainId","type":"uint256","internalType":"uint256"},{"name":"key","type":"string","internalType":"string"},{"name":"value","type":"uint256","internalType":"uint256"}],"outputs":[],"stateMutability":"nonpayable"},{"type":"function","name":"set","inputs":[{"name":"key","type":"string","internalType":"string"},{"name":"value","type":"bytes","internalType":"bytes"}],"outputs":[],"stateMutability":"nonpayable"},{"type":"function","name":"set","inputs":[{"name":"key","type":"string","internalType":"string"},{"name":"value","type":"bytes32","internalType":"bytes32"}],"outputs":[],"stateMutability":"nonpayable"},{"type":"function","name":"set","inputs":[{"name":"key","type":"string","internalType":"string"},{"name":"value","type":"int256","internalType":"int256"}],"outputs":[],"stateMutability":"nonpayable"},{"type":"function","name":"set","inputs":[{"name":"chainId","type":"uint256","internalType":"uint256"},{"name":"key","type":"string","internalType":"string"},{"name":"value","type":"bytes","internalType":"bytes"}],"outputs":[],"stateMutability":"nonpayable"},{"type":"function","name":"set","inputs":[{"name":"key","type":"string","internalType":"string"},{"name":"value","type":"string[]","internalType":"string[]"}],"outputs":[],"stateMutability":"nonpayable"},{"type":"function","name":"set","inputs":[{"name":"chainId","type":"uint256","internalType":"uint256"},{"name":"key","type":"string","internalType":"string"},{"name":"value","type":"address","internalType":"address"}],"outputs":[],"stateMutability":"nonpayable"},{"type":"function","name":"set","inputs":[{"name":"chainId","type":"uint256","internalType":"uint256"},{"name":"key","type":"string","internalType":"string"},{"name":"value","type":"address[]","internalType":"address[]"}],"outputs":[],"stateMutability":"nonpayable"},{"type":"function","name":"set","inputs":[{"name":"chainId","type":"uint256","internalType":"uint256"},{"name":"key","type":"string","internalType":"string"},{"name":"value","type":"string","internalType":"string"}],"outputs":[],"stateMutability":"nonpayable"},{"type":"function","name":"set","inputs":[{"name":"key","type":"string","internalType":"string"},{"name":"value","type":"uint256[]","internalType":"uint256[]"}],"outputs":[],"stateMutability":"nonpayable"},{"type":"function","name":"set","inputs":[{"name":"key","type":"string","internalType":"string"},{"name":"value","type":"address[]","internalType":"address[]"}],"outputs":[],"stateMutability":"nonpayable"},{"type":"function","name":"set","inputs":[{"name":"key","type":"string","internalType":"string"},{"name":"value","type":"uint256","internalType":"uint256"}],"outputs":[],"stateMutability":"nonpayable"},{"type":"function","name":"set","inputs":[{"name":"chainId","type":"uint256","internalType":"uint256"},{"name":"key","type":"string","internalType":"string"},{"name":"value","type":"int256[]","internalType":"int256[]"}],"outputs":[],"stateMutability":"nonpayable"},{"type":"function","name":"set","inputs":[{"name":"chainId","type":"uint256","internalType":"uint256"},{"name":"key","type":"string","internalType":"string"},{"name":"value","type":"bytes[]","internalType":"bytes[]"}],"outputs":[],"stateMutability":"nonpayable"},{"type":"function","name":"set","inputs":[{"name":"key","type":"string","internalType":"string"},{"name":"value","type":"address","internalType":"address"}],"outputs":[],"stateMutability":"nonpayable"},{"type":"function","name":"set","inputs":[{"name":"chainId","type":"uint256","internalType":"uint256"},{"name":"key","type":"string","internalType":"string"},{"name":"value","type":"bool","internalType":"bool"}],"outputs":[],"stateMutability":"nonpayable"},{"type":"function","name":"set","inputs":[{"name":"key","type":"string","internalType":"string"},{"name":"value","type":"bool","internalType":"bool"}],"outputs":[],"stateMutability":"nonpayable"},{"type":"function","name":"set","inputs":[{"name":"key","type":"string","internalType":"string"},{"name":"value","type":"bytes[]","internalType":"bytes[]"}],"outputs":[],"stateMutability":"nonpayable"},{"type":"function","name":"set","inputs":[{"name":"chainId","type":"uint256","internalType":"uint256"},{"name":"key","type":"string","internalType":"string"},{"name":"value","type":"bytes32","internalType":"bytes32"}],"outputs":[],"stateMutability":"nonpayable"},{"type":"function","name":"set","inputs":[{"name":"chainId","type":"uint256","internalType":"uint256"},{"name":"key","type":"string","internalType":"string"},{"name":"value","type":"string[]","internalType":"string[]"}],"outputs":[],"stateMutability":"nonpayable"},{"type":"function","name":"set","inputs":[{"name":"chainId","type":"uint256","internalType":"uint256"},{"name":"key","type":"string","internalType":"string"},{"name":"value","type":"uint256[]","internalType":"uint256[]"}],"outputs":[],"stateMutability":"nonpayable"},{"type":"function","name":"set","inputs":[{"name":"key","type":"string","internalType":"string"},{"name":"value","type":"int256[]","internalType":"int256[]"}],"outputs":[],"stateMutability":"nonpayable"},{"type":"function","name":"set","inputs":[{"name":"chainId","type":"uint256","internalType":"uint256"},{"name":"key","type":"string","internalType":"string"},{"name":"value","type":"bool[]","internalType":"bool[]"}],"outputs":[],"stateMutability":"nonpayable"},{"type":"function","name":"set","inputs":[{"name":"key","type":"string","internalType":"string"},{"name":"value","type":"bytes32[]","internalType":"bytes32[]"}],"outputs":[],"stateMutability":"nonpayable"},{"type":"function","name":"set","inputs":[{"name":"key","type":"string","internalType":"string"},{"name":"value","type":"string","internalType":"string"}],"outputs":[],"stateMutability":"nonpayable"},{"type":"function","name":"set","inputs":[{"name":"key","type":"string","internalType":"string"},{"name":"value","type":"bool[]","internalType":"bool[]"}],"outputs":[],"stateMutability":"nonpayable"},{"type":"function","name":"writeUpdatesBackToFile","inputs":[{"name":"enabled","type":"bool","internalType":"bool"}],"outputs":[],"stateMutability":"nonpayable"},{"type":"error","name":"AlreadyInitialized","inputs":[{"name":"key","type":"string","internalType":"string"}]},{"type":"error","name":"ChainNotInitialized","inputs":[{"name":"chainId","type":"uint256","internalType":"uint256"}]},{"type":"error","name":"InvalidChainKey","inputs":[{"name":"aliasOrId","type":"string","internalType":"string"}]},{"type":"error","name":"TypeMismatch","inputs":[{"name":"expected","type":"string","internalType":"string"},{"name":"actual","type":"string","internalType":"string"}]},{"type":"error","name":"UnableToParseVariable","inputs":[{"name":"key","type":"string","internalType":"string"}]},{"type":"error","name":"WriteToFileInForbiddenCtxt","inputs":[]}],"bytecode":{"object":"0x608060405234801561000f575f80fd5b50604051615daf380380615daf83398101604081905261002e916118c2565b8080156100a757506040516364af255d60e01b81525f80516020615d8f833981519152906364af255d90610066906004908101611920565b602060405180830381865afa158015610081573d5f803e3d5ffd5b505050506040513d601f19601f820116820180604052508101906100a59190611946565b155b156100c5576040516305d79a4360e31b815260040160405180910390fd5b5f6100d083826119ea565b506005805460ff19168215151790556040516360f9bb1160e01b81525f905f80516020615d8f8339815191529063ddd2128d9082906360f9bb1190610119908890600401611ad2565b5f60405180830381865afa158015610133573d5f803e3d5ffd5b505050506040513d5f823e601f3d908101601f1916820160405261015a9190810190611ae4565b6040518263ffffffff1660e01b81526004016101769190611ad2565b5f604051808303815f875af1158015610191573d5f803e3d5ffd5b505050506040513d5f823e601f3d908101601f191682016040526101b89190810190611ae4565b604051634095225960e11b81529091505f905f80516020615d8f8339815191529063812a44b2906101ed908590600401611b1d565b5f60405180830381865afa158015610207573d5f803e3d5ffd5b505050506040513d5f823e601f3d908101601f1916820160405261022e9190810190611b74565b90505f5b815181101561074d575f82828151811061024e5761024e611c28565b602002602001015190507f885cb69240a935d632d79c317109709ecfa91a80626ff3989d68f67f5b1dd12d5f1c6001600160a01b031663812a44b2858360405160200161029b9190611c53565b6040516020818303038152906040526040518363ffffffff1660e01b81526004016102c7929190611c69565b5f60405180830381865afa1580156102e1573d5f803e3d5ffd5b505050506040513d5f823e601f3d908101601f191682016040526103089190810190611b74565b515f036103155750610745565b5f61031f82610757565b6001805480820182555f919091529091507fb10e2d527612073b26eecdfd717e6a320cf44b4afac2b0732d9fcbe2b7fa0cf60161035c83826119ea565b506040515f80516020615d8f83398151915290638bb8dd43908790610385908690602001611c96565b6040516020818303038152906040526040518363ffffffff1660e01b81526004016103b1929190611c69565b5f60405180830381865afa9250505080156103ed57506040513d5f823e601f3d908101601f191682016040526103ea9190810190611ae4565b60015b6104e65760405163975a6ce960e01b81525f80516020615d8f8339815191529063ddd2128d90829063975a6ce990610429908790600401611ad2565b5f60405180830381865afa158015610443573d5f803e3d5ffd5b505050506040513d5f823e601f3d908101601f1916820160405261046a9190810190611ae4565b6040518263ffffffff1660e01b81526004016104869190611ad2565b5f604051808303815f875af11580156104a1573d5f803e3d5ffd5b505050506040513d5f823e601f3d908101601f191682016040526104c89190810190611ae4565b5f828152600260205260409020906104e090826119ea565b50610573565b60405163ddd2128d60e01b81525f80516020615d8f8339815191529063ddd2128d90610516908490600401611ad2565b5f604051808303815f875af1158015610531573d5f803e3d5ffd5b505050506040513d5f823e601f3d908101601f191682016040526105589190810190611ae4565b5f8381526002602052604090209061057090826119ea565b50505b60015b600760ff821611610741575f8160ff1660078111156105975761059761190c565b90505f846105b58360078111156105b0576105b061190c565b610866565b6040516020016105c6929190611cc9565b60408051601f1981840301815290829052634095225960e11b825291505f80516020615d8f8339815191529063812a44b290610608908b908590600401611c69565b5f60405180830381865afa92505050801561064457506040513d5f823e601f3d908101601f191682016040526106419190810190611b74565b60015b1561072c575f5b8151811015610729575f82828151811061066757610667611c28565b602002602001015190505f60078111156106835761068361190c565b5f8881526004602052604090819020905161069f908490611cf3565b9081526040519081900360200190205460ff1660078111156106c3576106c361190c565b036106fc576106f78b85836040516020016106df929190611cfe565b60408051601f19818403018152919052898489610a1f565b610720565b8060405163038a07f760e51b81526004016107179190611ad2565b60405180910390fd5b5060010161064b565b50505b5050808061073990611d09565b915050610576565b5050505b600101610232565b5050505050612204565b60405163fa91454d60e01b81525f905f80516020615d8f8339815191529063fa91454d90610789908590600401611ad2565b602060405180830381865afa9250505080156107c2575060408051601f3d908101601f191682019092526107bf91810190611d33565b60015b61085b57604051634cc1c2bb60e01b81525f80516020615d8f83398151915290634cc1c2bb906107f6908590600401611ad2565b5f60405180830381865afa92505050801561083257506040513d5f823e601f3d908101601f1916820160405261082f9190810190611d4a565b60015b61085157816040516397aa94df60e01b81526004016107179190611ad2565b6020015192915050565b92915050565b919050565b6060600182600781111561087c5761087c61190c565b036108a1575050604080518082019091526004815263189bdbdb60e21b602082015290565b60028260078111156108b5576108b561190c565b036108dd5750506040805180820190915260078152666164647265737360c81b602082015290565b60038260078111156108f1576108f161190c565b03610919575050604080518082019091526007815266313cba32b9999960c91b602082015290565b600482600781111561092d5761092d61190c565b036109525750506040805180820190915260048152631d5a5b9d60e21b602082015290565b60058260078111156109665761096661190c565b0361098a5750506040805180820190915260038152621a5b9d60ea1b602082015290565b600682600781111561099e5761099e61190c565b036109c5575050604080518082019091526006815265737472696e6760d01b602082015290565b60078260078111156109d9576109d961190c565b036109ff575050604080518082019091526005815264627974657360d81b602082015290565b50506040805180820190915260048152636e6f6e6560e01b602082015290565b5f6001826007811115610a3457610a3461190c565b03610c8257604051636986e76b60e11b81525f80516020615d8f8339815191529063d30dced690610a6b9089908990600401611c69565b602060405180830381865afa925050508015610aa4575060408051601f3d908101601f19168201909252610aa191810190611946565b60015b610bfc5760405163093e7f4d60e11b81525f80516020615d8f8339815191529063127cfe9a90610ada9089908990600401611c69565b5f60405180830381865afa925050508015610b1657506040513d5f823e601f3d908101601f19168201604052610b139190810190611e12565b60015b15610bf75780604051602001610b2c9190611ea9565b60408051601f198184030181528282525f8881526003602052919091209091610b56908790611cf3565b90815260200160405180910390209081610b7091906119ea565b50604080518082019091528060015b815260016020918201525f87815260049091526040908190209051610ba5908790611cf3565b90815260405190819003602001902081518154829060ff19166001836007811115610bd257610bd261190c565b02179055506020919091015181549015156101000261ff001990911617905550600190505b6117ae565b6040805182151560208201520160408051601f198184030181528282525f8881526003602052919091209091610c33908790611cf3565b90815260200160405180910390209081610c4d91906119ea565b50604080518082019091528060015b81525f602091820181905287815260049091526040908190209051610ba5908790611cf3565b6002826007811115610c9657610c9661190c565b03610e5057604051631979f21160e21b81525f80516020615d8f833981519152906365e7c84490610ccd9089908990600401611c69565b602060405180830381865afa925050508015610d06575060408051601f3d908101601f19168201909252610d0391810190611f03565b60015b610de5576040516365c428e760e01b81525f80516020615d8f833981519152906365c428e790610d3c9089908990600401611c69565b5f60405180830381865afa925050508015610d7857506040513d5f823e601f3d908101601f19168201604052610d759190810190611f1c565b60015b15610bf75780604051602001610d8e9190611fa9565b60408051601f198184030181528282525f8881526003602052919091209091610db8908790611cf3565b90815260200160405180910390209081610dd291906119ea565b5060408051808201909152806002610b7f565b604080516001600160a01b03831660208201520160408051601f198184030181528282525f8881526003602052919091209091610e23908790611cf3565b90815260200160405180910390209081610e3d91906119ea565b5060408051808201909152806002610c5c565b6003826007811115610e6457610e6461190c565b03611016576040516308e2148160e41b81525f80516020615d8f83398151915290638e21481090610e9b9089908990600401611c69565b602060405180830381865afa925050508015610ed4575060408051601f3d908101601f19168201909252610ed191810190611d33565b60015b610fb357604051633e716f8160e01b81525f80516020615d8f83398151915290633e716f8190610f0a9089908990600401611c69565b5f60405180830381865afa925050508015610f4657506040513d5f823e601f3d908101601f19168201604052610f439190810190611fe9565b60015b15610bf75780604051602001610f5c919061206f565b60408051601f198184030181528282525f8881526003602052919091209091610f86908790611cf3565b90815260200160405180910390209081610fa091906119ea565b5060408051808201909152806003610b7f565b60408051602081018390520160408051601f198184030181528282525f8881526003602052919091209091610fe9908790611cf3565b9081526020016040518091039020908161100391906119ea565b5060408051808201909152806003610c5c565b600482600781111561102a5761102a61190c565b036111dc5760405163cc7b048760e01b81525f80516020615d8f8339815191529063cc7b0487906110619089908990600401611c69565b602060405180830381865afa92505050801561109a575060408051601f3d908101601f1916820190925261109791810190611d33565b60015b611179576040516316bbe4f960e31b81525f80516020615d8f8339815191529063b5df27c8906110d09089908990600401611c69565b5f60405180830381865afa92505050801561110c57506040513d5f823e601f3d908101601f191682016040526111099190810190611fe9565b60015b15610bf75780604051602001611122919061206f565b60408051601f198184030181528282525f888152600360205291909120909161114c908790611cf3565b9081526020016040518091039020908161116691906119ea565b5060408051808201909152806004610b7f565b60408051602081018390520160408051601f198184030181528282525f88815260036020529190912090916111af908790611cf3565b908152602001604051809103902090816111c991906119ea565b5060408051808201909152806004610c5c565b60058260078111156111f0576111f061190c565b036113a25760405163c135073960e01b81525f80516020615d8f8339815191529063c1350739906112279089908990600401611c69565b602060405180830381865afa925050508015611260575060408051601f3d908101601f1916820190925261125d91810190611d33565b60015b61133f576040516369a9157360e11b81525f80516020615d8f8339815191529063d3522ae6906112969089908990600401611c69565b5f60405180830381865afa9250505080156112d257506040513d5f823e601f3d908101601f191682016040526112cf9190810190611fe9565b60015b15610bf757806040516020016112e8919061206f565b60408051601f198184030181528282525f8881526003602052919091209091611312908790611cf3565b9081526020016040518091039020908161132c91906119ea565b5060408051808201909152806005610b7f565b60408051602081018390520160408051601f198184030181528282525f8881526003602052919091209091611375908790611cf3565b9081526020016040518091039020908161138f91906119ea565b5060408051808201909152806005610c5c565b60078260078111156113b6576113b661190c565b036115705760405163d77bfdb960e01b81525f80516020615d8f8339815191529063d77bfdb9906113ed9089908990600401611c69565b5f60405180830381865afa92505050801561142957506040513d5f823e601f3d908101601f191682016040526114269190810190611ae4565b60015b6115085760405163b197c24760e01b81525f80516020615d8f8339815191529063b197c2479061145f9089908990600401611c69565b5f60405180830381865afa92505050801561149b57506040513d5f823e601f3d908101601f1916820160405261149891908101906120a6565b60015b15610bf757806040516020016114b1919061214a565b60408051601f198184030181528282525f88815260036020529190912090916114db908790611cf3565b908152602001604051809103902090816114f591906119ea565b5060408051808201909152806007610b7f565b806040516020016115199190611ad2565b60408051601f198184030181528282525f8881526003602052919091209091611543908790611cf3565b9081526020016040518091039020908161155d91906119ea565b5060408051808201909152806007610c5c565b60068260078111156115845761158461190c565b036117ae57604051638bb8dd4360e01b81525f80516020615d8f83398151915290638bb8dd43906115bb9089908990600401611c69565b5f60405180830381865afa9250505080156115f757506040513d5f823e601f3d908101601f191682016040526115f49190810190611ae4565b60015b6116d657604051639f62928160e01b81525f80516020615d8f83398151915290639f6292819061162d9089908990600401611c69565b5f60405180830381865afa92505050801561166957506040513d5f823e601f3d908101601f191682016040526116669190810190611b74565b60015b15610bf7578060405160200161167f91906121ad565b60408051601f198184030181528282525f88815260036020529190912090916116a9908790611cf3565b908152602001604051809103902090816116c391906119ea565b5060408051808201909152806006610b7f565b806040516020016116e79190611ad2565b60408051601f198184030181528282525f8881526003602052919091209091611711908790611cf3565b9081526020016040518091039020908161172b91906119ea565b50604080518082018252600681525f602080830182905288825260049052829020915190919061175c908790611cf3565b90815260405190819003602001902081518154829060ff191660018360078111156117895761178961190c565b02179055506020919091015181549015156101000261ff001990911617905550600190505b806117ce578260405163ea00fa1360e01b81526004016107179190611ad2565b505050505050565b634e487b7160e01b5f52604160045260245ffd5b604051608081016001600160401b038111828210171561180c5761180c6117d6565b60405290565b604051601f8201601f191681016001600160401b038111828210171561183a5761183a6117d6565b604052919050565b5f82601f830112611851575f80fd5b8151602083015f806001600160401b03841115611870576118706117d6565b50601f8301601f191660200161188581611812565b915050828152858383011115611899575f80fd5b8282602083015e5f92810160200192909252509392505050565b80518015158114610861575f80fd5b5f80604083850312156118d3575f80fd5b82516001600160401b038111156118e8575f80fd5b6118f485828601611842565b925050611903602084016118b3565b90509250929050565b634e487b7160e01b5f52602160045260245ffd5b602081016009831061194057634e487b7160e01b5f52602160045260245ffd5b91905290565b5f60208284031215611956575f80fd5b61195f826118b3565b9392505050565b600181811c9082168061197a57607f821691505b60208210810361199857634e487b7160e01b5f52602260045260245ffd5b50919050565b601f8211156119e557805f5260205f20601f840160051c810160208510156119c35750805b601f840160051c820191505b818110156119e2575f81556001016119cf565b50505b505050565b81516001600160401b03811115611a0357611a036117d6565b611a1781611a118454611966565b8461199e565b6020601f821160018114611a49575f8315611a325750848201515b5f19600385901b1c1916600184901b1784556119e2565b5f84815260208120601f198516915b82811015611a785787850151825560209485019460019092019101611a58565b5084821015611a9557868401515f19600387901b60f8161c191681555b50505050600190811b01905550565b5f81518084528060208401602086015e5f602082860101526020601f19601f83011685010191505092915050565b602081525f61195f6020830184611aa4565b5f60208284031215611af4575f80fd5b81516001600160401b03811115611b09575f80fd5b611b1584828501611842565b949350505050565b604081525f611b2f6040830184611aa4565b828103602084015260018152600960fa1b60208201526040810191505092915050565b5f6001600160401b03821115611b6a57611b6a6117d6565b5060051b60200190565b5f60208284031215611b84575f80fd5b81516001600160401b03811115611b99575f80fd5b8201601f81018413611ba9575f80fd5b8051611bbc611bb782611b52565b611812565b8082825260208201915060208360051b850101925086831115611bdd575f80fd5b602084015b83811015611c1d5780516001600160401b03811115611bff575f80fd5b611c0e89602083890101611842565b84525060209283019201611be2565b509695505050505050565b634e487b7160e01b5f52603260045260245ffd5b5f81518060208401855e5f93019283525090919050565b61121760f11b81525f61195f6002830184611c3c565b604081525f611c7b6040830185611aa4565b8281036020840152611c8d8185611aa4565b95945050505050565b61121760f11b81525f611cac6002830184611c3c565b6c0b995b991c1bda5b9d17dd5c9b609a1b8152600d019392505050565b61121760f11b81525f611cdf6002830185611c3c565b601760f91b8152611c8d6001820185611c3c565b5f61195f8284611c3c565b5f611cdf8285611c3c565b5f60ff821660ff8103611d2a57634e487b7160e01b5f52601160045260245ffd5b60010192915050565b5f60208284031215611d43575f80fd5b5051919050565b5f60208284031215611d5a575f80fd5b81516001600160401b03811115611d6f575f80fd5b820160808185031215611d80575f80fd5b611d886117ea565b81516001600160401b03811115611d9d575f80fd5b611da986828501611842565b8252506020828101519082015260408201516001600160401b03811115611dce575f80fd5b611dda86828501611842565b60408301525060608201516001600160401b03811115611df8575f80fd5b611e0486828501611842565b606083015250949350505050565b5f60208284031215611e22575f80fd5b81516001600160401b03811115611e37575f80fd5b8201601f81018413611e47575f80fd5b8051611e55611bb782611b52565b8082825260208201915060208360051b850101925086831115611e76575f80fd5b6020840193505b82841015611e9f57611e8e846118b3565b825260209384019390910190611e7d565b9695505050505050565b602080825282518282018190525f918401906040840190835b81811015611ee25783511515835260209384019390920191600101611ec2565b509095945050505050565b80516001600160a01b0381168114610861575f80fd5b5f60208284031215611f13575f80fd5b61195f82611eed565b5f60208284031215611f2c575f80fd5b81516001600160401b03811115611f41575f80fd5b8201601f81018413611f51575f80fd5b8051611f5f611bb782611b52565b8082825260208201915060208360051b850101925086831115611f80575f80fd5b6020840193505b82841015611e9f57611f9884611eed565b825260209384019390910190611f87565b602080825282518282018190525f918401906040840190835b81811015611ee25783516001600160a01b0316835260209384019390920191600101611fc2565b5f60208284031215611ff9575f80fd5b81516001600160401b0381111561200e575f80fd5b8201601f8101841361201e575f80fd5b805161202c611bb782611b52565b8082825260208201915060208360051b85010192508683111561204d575f80fd5b6020840193505b82841015611e9f578351825260209384019390910190612054565b602080825282518282018190525f918401906040840190835b81811015611ee2578351835260209384019390920191600101612088565b5f602082840312156120b6575f80fd5b81516001600160401b038111156120cb575f80fd5b8201601f810184136120db575f80fd5b80516120e9611bb782611b52565b8082825260208201915060208360051b85010192508683111561210a575f80fd5b602084015b83811015611c1d5780516001600160401b0381111561212c575f80fd5b61213b89602083890101611842565b8452506020928301920161210f565b5f602082016020835280845180835260408501915060408160051b8601019250602086015f5b828110156121a157603f1987860301845261218c858351611aa4565b94506020938401939190910190600101612170565b50929695505050505050565b5f602082016020835280845180835260408501915060408160051b8601019250602086015f5b828110156121a157603f198786030184526121ef858351611aa4565b945060209384019391909101906001016121d3565b613b7e806122115f395ff3fe608060405234801561000f575f80fd5b506004361061021e575f3560e01c80637df3ef121161012a578063c91ca7ba116100b4578063de0fc9b311610079578063de0fc9b3146104bc578063e298d00b146104cf578063e6053250146104e2578063e942b516146104f5578063fa3c074a14610508575f80fd5b8063c91ca7ba1461045d578063cf1cfa9914610470578063cf72a2f314610483578063d6698dc414610496578063db0075df146104a9575f80fd5b80638be19924116100fa5780638be19924146103fe57806393dbe6e014610411578063a815ff1514610424578063b3a6400114610437578063ba0ff22c1461044a575f80fd5b80637df3ef12146103b2578063805da4ad146103c557806388c63d45146103d85780638a42ebe9146103eb575f80fd5b806343d9eb7b116101ab5780635eba0df01161017b5780635eba0df01461034657806361141c9714610359578063655609501461036c578063693ec85e1461037f5780637b8fed811461039f575f80fd5b806343d9eb7b146102f857806343ec8b6a1461030b5780634d85ce801461032057806359b3952614610333575f80fd5b8063261a323e116101f1578063261a323e1461027b5780632b29c0fa1461029e5780632e3196a5146102b15780632ef8ba74146102c45780633f3a7588146102d7575f80fd5b806307d79d9a1461022257806308f7b4b2146102375780631d7763231461024a57806322dc48fd14610268575b5f80fd5b610235610230366004612c3c565b61051b565b005b610235610245366004612d0f565b610639565b61025261082c565b60405161025f9190612d7a565b60405180910390f35b610235610276366004612c3c565b61099d565b61028e610289366004612dbc565b610a6e565b604051901515815260200161025f565b6102356102ac366004612df5565b610aed565b6102356102bf366004612e58565b610b6a565b6102356102d2366004612e58565b610be3565b6102ea6102e5366004612dbc565b610c5c565b60405190815260200161025f565b61028e610306366004612e99565b610d7c565b610313610dbe565b60405161025f9190612ef4565b61023561032e366004612f06565b610ecb565b610235610341366004612fe5565b610fa4565b610235610354366004613054565b61101d565b610235610367366004613108565b611102565b61023561037a366004612f06565b61126f565b61039261038d366004612dbc565b611315565b60405161025f919061317d565b6102356103ad3660046131c2565b6113b1565b6103136103c036600461321b565b61142a565b6103926103d3366004612e99565b6114c9565b6102356103e6366004613232565b61162d565b6102356103f9366004612e58565b6116a6565b61023561040c366004612d0f565b61171f565b61023561041f36600461328b565b6118bd565b6102356104323660046132ec565b611a1b565b610235610445366004613346565b611a94565b61023561045836600461339c565b611b67565b61023561046b366004612fe5565b611be0565b61023561047e366004612c3c565b611c59565b61023561049136600461328b565b611d2e565b6102356104a43660046133ea565b611e57565b6102356104b7366004612d0f565b611f08565b6102356104ca3660046131c2565b6120a6565b6102356104dd366004613469565b61211f565b6102356104f03660046131c2565b6122be565b610235610503366004612df5565b612337565b6102356105163660046134ca565b6123b0565b60408051808201909152600581525f602082015261053a848483612429565b60408051602081018490520160408051601f198184030181528282525f878152600360205291909120909161057090869061353a565b9081526020016040518091039020908161058a91906135c0565b5060055460ff161561063357610633846105b7835f015160078111156105b2576105b2613169565b61252d565b604051635191620760e11b8152600481018690528690737109709ecfa91a80626ff3989d68f67f5b1dd12d9063a322c40e906024015b5f60405180830381865afa158015610607573d5f803e3d5ffd5b505050506040513d5f823e601f3d908101601f1916820160405261062e91908101906136c7565b6126e6565b50505050565b604080518082019091526003815260016020820152610659848483612429565b8160405160200161066a9190612d7a565b60408051601f198184030181528282525f878152600360205291909120909161069490869061353a565b908152602001604051809103902090816106ae91906135c0565b5060055460ff1615610633576040805180820190915260018152605b60f81b60208201525f5b83518110156107df578161077d5f80516020613b298339815191525f1c6001600160a01b031663b11a19e8878581518110610711576107116136f8565b60200260200101516040518263ffffffff1660e01b815260040161073791815260200190565b5f60405180830381865afa158015610751573d5f803e3d5ffd5b505050506040513d5f823e601f3d908101601f1916820160405261077891908101906136c7565b612788565b60405160200161078e92919061370c565b6040516020818303038152906040529150600184516107ad9190613720565b8110156107d757816040516020016107c5919061373f565b60405160208183030381529060405291505b6001016106d4565b50806040516020016107f1919061375b565b60405160208183030381529060405290506108258561081e845f015160078111156105b2576105b2613169565b86846126e6565b5050505050565b60605f6001805480602002602001604051908101604052809291908181526020015f905b828210156108f8578382905f5260205f2001805461086d90613545565b80601f016020809104026020016040519081016040528092919081815260200182805461089990613545565b80156108e45780601f106108bb576101008083540402835291602001916108e4565b820191905f5260205f20905b8154815290600101906020018083116108c757829003601f168201915b505050505081526020019060010190610850565b5050505090505f81516001600160401b0381111561091857610918612b56565b604051908082528060200260200182016040528015610941578160200160208202803683370190505b5090505f5b825181101561099657610971838281518110610964576109646136f8565b6020026020010151610c5c565b828281518110610983576109836136f8565b6020908102919091010152600101610946565b5092915050565b60408051808201909152600481525f60208201526109bc848483612429565b60408051602081018490520160408051601f198184030181528282525f87815260036020529190912090916109f290869061353a565b90815260200160405180910390209081610a0c91906135c0565b5060055460ff16156106335761063384610a34835f015160078111156105b2576105b2613169565b60405163348051d760e11b8152600481018690528690737109709ecfa91a80626ff3989d68f67f5b1dd12d90636900a3ae906024016105ed565b5f610ae75f80516020613b298339815191525f1c6001600160a01b0316633408e4706040518163ffffffff1660e01b8152600401602060405180830381865afa158015610abd573d5f803e3d5ffd5b505050506040513d601f19601f82011682018060405250810190610ae19190613777565b83610d7c565b92915050565b610b665f80516020613b298339815191525f1c6001600160a01b0316633408e4706040518163ffffffff1660e01b8152600401602060405180830381865afa158015610b3b573d5f803e3d5ffd5b505050506040513d601f19601f82011682018060405250810190610b5f9190613777565b8383610ecb565b5050565b610b665f80516020613b298339815191525f1c6001600160a01b0316633408e4706040518163ffffffff1660e01b8152600401602060405180830381865afa158015610bb8573d5f803e3d5ffd5b505050506040513d601f19601f82011682018060405250810190610bdc9190613777565b8383611c59565b610b665f80516020613b298339815191525f1c6001600160a01b0316633408e4706040518163ffffffff1660e01b8152600401602060405180830381865afa158015610c31573d5f803e3d5ffd5b505050506040513d601f19601f82011682018060405250810190610c559190613777565b838361051b565b60405163fa91454d60e01b81525f90737109709ecfa91a80626ff3989d68f67f5b1dd12d9063fa91454d90610c95908590600401612ef4565b602060405180830381865afa925050508015610cce575060408051601f3d908101601f19168201909252610ccb91810190613777565b60015b610ae757604051634cc1c2bb60e01b8152737109709ecfa91a80626ff3989d68f67f5b1dd12d90634cc1c2bb90610d09908590600401612ef4565b5f60405180830381865afa925050508015610d4557506040513d5f823e601f3d908101601f19168201604052610d42919081019061378e565b60015b610d6d57816040516397aa94df60e01b8152600401610d649190612ef4565b60405180910390fd5b6020015192915050565b919050565b5f828152600360205260408082209051829190610d9a90859061353a565b90815260200160405180910390208054610db390613545565b905011905092915050565b606060025f5f80516020613b298339815191525f1c6001600160a01b0316633408e4706040518163ffffffff1660e01b8152600401602060405180830381865afa158015610e0e573d5f803e3d5ffd5b505050506040513d601f19601f82011682018060405250810190610e329190613777565b81526020019081526020015f208054610e4a90613545565b80601f0160208091040260200160405190810160405280929190818152602001828054610e7690613545565b8015610ec15780601f10610e9857610100808354040283529160200191610ec1565b820191905f5260205f20905b815481529060010190602001808311610ea457829003601f168201915b5050505050905090565b60408051808201909152600781525f6020820152610eea848483612429565b81604051602001610efb9190612ef4565b60408051601f198184030181528282525f8781526003602052919091209091610f2590869061353a565b90815260200160405180910390209081610f3f91906135c0565b5060055460ff16156106335761063384610f67835f015160078111156105b2576105b2613169565b6040516371aad10d60e01b8152869061062e90737109709ecfa91a80626ff3989d68f67f5b1dd12d906371aad10d90610737908a90600401612ef4565b610b665f80516020613b298339815191525f1c6001600160a01b0316633408e4706040518163ffffffff1660e01b8152600401602060405180830381865afa158015610ff2573d5f803e3d5ffd5b505050506040513d601f19601f820116820180604052508101906110169190613777565b8383611d2e565b60408051808201909152600281525f602082015261103c848483612429565b604080516001600160a01b03841660208201520160408051601f198184030181528282525f878152600360205291909120909161107a90869061353a565b9081526020016040518091039020908161109491906135c0565b5060055460ff161561063357610633846110bc835f015160078111156105b2576105b2613169565b604051632b65311f60e11b81526001600160a01b0386166004820152869061062e90737109709ecfa91a80626ff3989d68f67f5b1dd12d906356ca623e90602401610737565b604080518082019091526002815260016020820152611122848483612429565b816040516020016111339190613856565b60408051601f198184030181528282525f878152600360205291909120909161115d90869061353a565b9081526020016040518091039020908161117791906135c0565b5060055460ff1615610633576040805180820190915260018152605b60f81b60208201525f5b83518110156107df578161120d5f80516020613b298339815191525f1c6001600160a01b03166356ca623e8785815181106111da576111da6136f8565b60200260200101516040518263ffffffff1660e01b815260040161073791906001600160a01b0391909116815260200190565b60405160200161121e92919061370c565b60405160208183030381529060405291506001845161123d9190613720565b8110156112675781604051602001611255919061373f565b60405160208183030381529060405291505b60010161119d565b60408051808201909152600681525f602082015261128e848483612429565b8160405160200161129f9190612ef4565b60408051601f198184030181528282525f87815260036020529190912090916112c990869061353a565b908152602001604051809103902090816112e391906135c0565b5060055460ff1615610633576106338461130b835f015160078111156105b2576105b2613169565b8561062e86612788565b604080516080810182525f91810182815260608083019390935281526020810191909152610ae75f80516020613b298339815191525f1c6001600160a01b0316633408e4706040518163ffffffff1660e01b8152600401602060405180830381865afa158015611387573d5f803e3d5ffd5b505050506040513d601f19601f820116820180604052508101906113ab9190613777565b836114c9565b610b665f80516020613b298339815191525f1c6001600160a01b0316633408e4706040518163ffffffff1660e01b8152600401602060405180830381865afa1580156113ff573d5f803e3d5ffd5b505050506040513d601f19601f820116820180604052508101906114239190613777565b8383611f08565b5f81815260026020526040902080546060919061144690613545565b80601f016020809104026020016040519081016040528092919081815260200182805461147290613545565b80156114bd5780601f10611494576101008083540402835291602001916114bd565b820191905f5260205f20905b8154815290600101906020018083116114a057829003601f168201915b50505050509050919050565b604080516080810182525f91810182815260608083019390935281526020810191909152604051806040016040528060045f8681526020019081526020015f2084604051611517919061353a565b908152604080519182900360200182208282019091528054829060ff16600781111561154557611545613169565b600781111561155657611556613169565b81529054610100900460ff1615156020918201529082525f868152600382526040908190209051929091019161158d90869061353a565b908152602001604051809103902080546115a690613545565b80601f01602080910402602001604051908101604052809291908181526020018280546115d290613545565b801561161d5780601f106115f45761010080835404028352916020019161161d565b820191905f5260205f20905b81548152906001019060200180831161160057829003601f168201915b5050505050815250905092915050565b610b665f80516020613b298339815191525f1c6001600160a01b0316633408e4706040518163ffffffff1660e01b8152600401602060405180830381865afa15801561167b573d5f803e3d5ffd5b505050506040513d601f19601f8201168201806040525081019061169f9190613777565b8383611102565b610b665f80516020613b298339815191525f1c6001600160a01b0316633408e4706040518163ffffffff1660e01b8152600401602060405180830381865afa1580156116f4573d5f803e3d5ffd5b505050506040513d601f19601f820116820180604052508101906117189190613777565b838361099d565b60408051808201909152600581526001602082015261173f848483612429565b816040516020016117509190612d7a565b60408051601f198184030181528282525f878152600360205291909120909161177a90869061353a565b9081526020016040518091039020908161179491906135c0565b5060055460ff1615610633576040805180820190915260018152605b60f81b60208201525f5b83518110156107df57815f80516020613b298339815191525f1c6001600160a01b031663a322c40e8684815181106117f4576117f46136f8565b60200260200101516040518263ffffffff1660e01b815260040161181a91815260200190565b5f60405180830381865afa158015611834573d5f803e3d5ffd5b505050506040513d5f823e601f3d908101601f1916820160405261185b91908101906136c7565b60405160200161186c92919061370c565b60405160208183030381529060405291506001845161188b9190613720565b8110156118b557816040516020016118a3919061373f565b60405160208183030381529060405291505b6001016117ba565b6040805180820190915260078152600160208201526118dd848483612429565b816040516020016118ee9190613896565b60408051601f198184030181528282525f878152600360205291909120909161191890869061353a565b9081526020016040518091039020908161193291906135c0565b5060055460ff1615610633576040805180820190915260018152605b60f81b60208201525f5b83518110156107df57816119b95f80516020613b298339815191525f1c6001600160a01b03166371aad10d878581518110611995576119956136f8565b60200260200101516040518263ffffffff1660e01b81526004016107379190612ef4565b6040516020016119ca92919061370c565b6040516020818303038152906040529150600184516119e99190613720565b811015611a135781604051602001611a01919061373f565b60405160208183030381529060405291505b600101611958565b610b665f80516020613b298339815191525f1c6001600160a01b0316633408e4706040518163ffffffff1660e01b8152600401602060405180830381865afa158015611a69573d5f803e3d5ffd5b505050506040513d601f19601f82011682018060405250810190611a8d9190613777565b838361101d565b60408051808201909152600181525f6020820152611ab3848483612429565b6040805183151560208201520160408051601f198184030181528282525f8781526003602052919091209091611aea90869061353a565b90815260200160405180910390209081611b0491906135c0565b5060055460ff16156106335761063384611b2c835f015160078111156105b2576105b2613169565b6040516338ee73ed60e11b815285151560048201528690737109709ecfa91a80626ff3989d68f67f5b1dd12d906371dce7da906024016105ed565b610b665f80516020613b298339815191525f1c6001600160a01b0316633408e4706040518163ffffffff1660e01b8152600401602060405180830381865afa158015611bb5573d5f803e3d5ffd5b505050506040513d601f19601f82011682018060405250810190611bd99190613777565b8383611a94565b610b665f80516020613b298339815191525f1c6001600160a01b0316633408e4706040518163ffffffff1660e01b8152600401602060405180830381865afa158015611c2e573d5f803e3d5ffd5b505050506040513d601f19601f82011682018060405250810190611c529190613777565b83836118bd565b60408051808201909152600381525f6020820152611c78848483612429565b60408051602081018490520160408051601f198184030181528282525f8781526003602052919091209091611cae90869061353a565b90815260200160405180910390209081611cc891906135c0565b5060055460ff16156106335761063384611cf0835f015160078111156105b2576105b2613169565b604051631623433d60e31b815260048101869052869061062e90737109709ecfa91a80626ff3989d68f67f5b1dd12d9063b11a19e890602401610737565b604080518082019091526006815260016020820152611d4e848483612429565b81604051602001611d5f91906138f9565b60408051601f198184030181528282525f8781526003602052919091209091611d8990869061353a565b90815260200160405180910390209081611da391906135c0565b5060055460ff1615610633576040805180820190915260018152605b60f81b60208201525f5b83518110156107df5781611df5858381518110611de857611de86136f8565b6020026020010151612788565b604051602001611e0692919061370c565b604051602081830303815290604052915060018451611e259190613720565b811015611e4f5781604051602001611e3d919061373f565b60405160208183030381529060405291505b600101611dc9565b808015611ed757506040516364af255d60e01b8152737109709ecfa91a80626ff3989d68f67f5b1dd12d906364af255d90611e96906004908101613950565b602060405180830381865afa158015611eb1573d5f803e3d5ffd5b505050506040513d601f19601f82011682018060405250810190611ed5919061396a565b155b15611ef5576040516305d79a4360e31b815260040160405180910390fd5b6005805460ff1916911515919091179055565b604080518082019091526004815260016020820152611f28848483612429565b81604051602001611f399190612d7a565b60408051601f198184030181528282525f8781526003602052919091209091611f6390869061353a565b90815260200160405180910390209081611f7d91906135c0565b5060055460ff1615610633576040805180820190915260018152605b60f81b60208201525f5b83518110156107df57815f80516020613b298339815191525f1c6001600160a01b0316636900a3ae868481518110611fdd57611fdd6136f8565b60200260200101516040518263ffffffff1660e01b815260040161200391815260200190565b5f60405180830381865afa15801561201d573d5f803e3d5ffd5b505050506040513d5f823e601f3d908101601f1916820160405261204491908101906136c7565b60405160200161205592919061370c565b6040516020818303038152906040529150600184516120749190613720565b81101561209e578160405160200161208c919061373f565b60405160208183030381529060405291505b600101611fa3565b610b665f80516020613b298339815191525f1c6001600160a01b0316633408e4706040518163ffffffff1660e01b8152600401602060405180830381865afa1580156120f4573d5f803e3d5ffd5b505050506040513d601f19601f820116820180604052508101906121189190613777565b838361171f565b604080518082019091526001808252602082015261213e848483612429565b8160405160200161214f9190613985565b60408051601f198184030181528282525f878152600360205291909120909161217990869061353a565b9081526020016040518091039020908161219391906135c0565b5060055460ff1615610633576040805180820190915260018152605b60f81b60208201525f5b83518110156107df57815f80516020613b298339815191525f1c6001600160a01b03166371dce7da8684815181106121f3576121f36136f8565b60200260200101516040518263ffffffff1660e01b815260040161221b911515815260200190565b5f60405180830381865afa158015612235573d5f803e3d5ffd5b505050506040513d5f823e601f3d908101601f1916820160405261225c91908101906136c7565b60405160200161226d92919061370c565b60405160208183030381529060405291506001845161228c9190613720565b8110156122b657816040516020016122a4919061373f565b60405160208183030381529060405291505b6001016121b9565b610b665f80516020613b298339815191525f1c6001600160a01b0316633408e4706040518163ffffffff1660e01b8152600401602060405180830381865afa15801561230c573d5f803e3d5ffd5b505050506040513d601f19601f820116820180604052508101906123309190613777565b8383610639565b610b665f80516020613b298339815191525f1c6001600160a01b0316633408e4706040518163ffffffff1660e01b8152600401602060405180830381865afa158015612385573d5f803e3d5ffd5b505050506040513d601f19601f820116820180604052508101906123a99190613777565b838361126f565b610b665f80516020613b298339815191525f1c6001600160a01b0316633408e4706040518163ffffffff1660e01b8152600401602060405180830381865afa1580156123fe573d5f803e3d5ffd5b505050506040513d601f19601f820116820180604052508101906124229190613777565b838361211f565b5f83815260046020526040808220905161244490859061353a565b908152604080519182900360200182208282019091528054829060ff16600781111561247257612472613169565b600781111561248357612483613169565b81529054610100900460ff16151560209091015290505f815160078111156124ad576124ad613169565b03612523578160045f8681526020019081526020015f20846040516124d2919061353a565b90815260405190819003602001902081518154829060ff191660018360078111156124ff576124ff613169565b02179055506020919091015181549015156101000261ff0019909116179055610633565b61063381836127b1565b6060600182600781111561254357612543613169565b03612568575050604080518082019091526004815263189bdbdb60e21b602082015290565b600282600781111561257c5761257c613169565b036125a45750506040805180820190915260078152666164647265737360c81b602082015290565b60038260078111156125b8576125b8613169565b036125e0575050604080518082019091526007815266313cba32b9999960c91b602082015290565b60048260078111156125f4576125f4613169565b036126195750506040805180820190915260048152631d5a5b9d60e21b602082015290565b600582600781111561262d5761262d613169565b036126515750506040805180820190915260038152621a5b9d60ea1b602082015290565b600682600781111561266557612665613169565b0361268c575050604080518082019091526006815265737472696e6760d01b602082015290565b60078260078111156126a0576126a0613169565b036126c6575050604080518082019091526005815264627974657360d81b602082015290565b50506040805180820190915260048152636e6f6e6560e01b602082015290565b5f6126f0856127ec565b90505f818585604051602001612708939291906139be565b60408051601f19818403018152908290526351ac6a3360e01b82529150737109709ecfa91a80626ff3989d68f67f5b1dd12d906351ac6a33906127539086905f908690600401613a08565b5f604051808303815f87803b15801561276a575f80fd5b505af115801561277c573d5f803e3d5ffd5b50505050505050505050565b60608160405160200161279b9190613ab8565b6040516020818303038152906040529050919050565b6127bb8282612979565b610b66576127c8816129c0565b6127d1836129c0565b60405163b02cf71d60e01b8152600401610d64929190613ade565b60605f5b60015481101561295c57826128a560018381548110612811576128116136f8565b905f5260205f2001805461282490613545565b80601f016020809104026020016040519081016040528092919081815260200182805461285090613545565b801561289b5780601f106128725761010080835404028352916020019161289b565b820191905f5260205f20905b81548152906001019060200180831161287e57829003601f168201915b5050505050610c5c565b0361295457600181815481106128bd576128bd6136f8565b905f5260205f200180546128d090613545565b80601f01602080910402602001604051908101604052809291908181526020018280546128fc90613545565b80156129475780601f1061291e57610100808354040283529160200191612947565b820191905f5260205f20905b81548152906001019060200180831161292a57829003601f168201915b5050505050915050919050565b6001016127f0565b50604051631ff94f8360e11b815260048101839052602401610d64565b80515f90600781111561298e5761298e613169565b835160078111156129a1576129a1613169565b1480156129b957508160200151151583602001511515145b9392505050565b60605f6129cf835f0151612a2c565b9050826020015115806129f357505f835160078111156129f1576129f1613169565b145b156129fe5792915050565b80604051602001612a0f9190613b0b565b604051602081830303815290604052915050919050565b50919050565b60606001826007811115612a4257612a42613169565b03612a67575050604080518082019091526004815263189bdbdb60e21b602082015290565b6002826007811115612a7b57612a7b613169565b03612aa35750506040805180820190915260078152666164647265737360c81b602082015290565b6003826007811115612ab757612ab7613169565b03612adf575050604080518082019091526007815266313cba32b9999960c91b602082015290565b6004826007811115612af357612af3613169565b03612b1b5750506040805180820190915260078152663ab4b73a191a9b60c91b602082015290565b6005826007811115612b2f57612b2f613169565b0361265157505060408051808201909152600681526534b73a191a9b60d11b602082015290565b634e487b7160e01b5f52604160045260245ffd5b604051608081016001600160401b0381118282101715612b8c57612b8c612b56565b60405290565b604051601f8201601f191681016001600160401b0381118282101715612bba57612bba612b56565b604052919050565b5f6001600160401b03821115612bda57612bda612b56565b50601f01601f191660200190565b5f82601f830112612bf7575f80fd5b8135602083015f612c0f612c0a84612bc2565b612b92565b9050828152858383011115612c22575f80fd5b828260208301375f92810160200192909252509392505050565b5f805f60608486031215612c4e575f80fd5b8335925060208401356001600160401b03811115612c6a575f80fd5b612c7686828701612be8565b93969395505050506040919091013590565b5f6001600160401b03821115612ca057612ca0612b56565b5060051b60200190565b5f82601f830112612cb9575f80fd5b8135612cc7612c0a82612c88565b8082825260208201915060208360051b860101925085831115612ce8575f80fd5b602085015b83811015612d05578035835260209283019201612ced565b5095945050505050565b5f805f60608486031215612d21575f80fd5b8335925060208401356001600160401b03811115612d3d575f80fd5b612d4986828701612be8565b92505060408401356001600160401b03811115612d64575f80fd5b612d7086828701612caa565b9150509250925092565b602080825282518282018190525f918401906040840190835b81811015612db1578351835260209384019390920191600101612d93565b509095945050505050565b5f60208284031215612dcc575f80fd5b81356001600160401b03811115612de1575f80fd5b612ded84828501612be8565b949350505050565b5f8060408385031215612e06575f80fd5b82356001600160401b03811115612e1b575f80fd5b612e2785828601612be8565b92505060208301356001600160401b03811115612e42575f80fd5b612e4e85828601612be8565b9150509250929050565b5f8060408385031215612e69575f80fd5b82356001600160401b03811115612e7e575f80fd5b612e8a85828601612be8565b95602094909401359450505050565b5f8060408385031215612eaa575f80fd5b8235915060208301356001600160401b03811115612e42575f80fd5b5f81518084528060208401602086015e5f602082860101526020601f19601f83011685010191505092915050565b602081525f6129b96020830184612ec6565b5f805f60608486031215612f18575f80fd5b8335925060208401356001600160401b03811115612f34575f80fd5b612f4086828701612be8565b92505060408401356001600160401b03811115612f5b575f80fd5b612d7086828701612be8565b5f82601f830112612f76575f80fd5b8135612f84612c0a82612c88565b8082825260208201915060208360051b860101925085831115612fa5575f80fd5b602085015b83811015612d055780356001600160401b03811115612fc7575f80fd5b612fd6886020838a0101612be8565b84525060209283019201612faa565b5f8060408385031215612ff6575f80fd5b82356001600160401b0381111561300b575f80fd5b61301785828601612be8565b92505060208301356001600160401b03811115613032575f80fd5b612e4e85828601612f67565b80356001600160a01b0381168114610d77575f80fd5b5f805f60608486031215613066575f80fd5b8335925060208401356001600160401b03811115613082575f80fd5b61308e86828701612be8565b92505061309d6040850161303e565b90509250925092565b5f82601f8301126130b5575f80fd5b81356130c3612c0a82612c88565b8082825260208201915060208360051b8601019250858311156130e4575f80fd5b602085015b83811015612d05576130fa8161303e565b8352602092830192016130e9565b5f805f6060848603121561311a575f80fd5b8335925060208401356001600160401b03811115613136575f80fd5b61314286828701612be8565b92505060408401356001600160401b0381111561315d575f80fd5b612d70868287016130a6565b634e487b7160e01b5f52602160045260245ffd5b602081525f825180516008811061319657613196613169565b80602085015250602081015115156040840152506020830151606080840152612ded6080840182612ec6565b5f80604083850312156131d3575f80fd5b82356001600160401b038111156131e8575f80fd5b6131f485828601612be8565b92505060208301356001600160401b0381111561320f575f80fd5b612e4e85828601612caa565b5f6020828403121561322b575f80fd5b5035919050565b5f8060408385031215613243575f80fd5b82356001600160401b03811115613258575f80fd5b61326485828601612be8565b92505060208301356001600160401b0381111561327f575f80fd5b612e4e858286016130a6565b5f805f6060848603121561329d575f80fd5b8335925060208401356001600160401b038111156132b9575f80fd5b6132c586828701612be8565b92505060408401356001600160401b038111156132e0575f80fd5b612d7086828701612f67565b5f80604083850312156132fd575f80fd5b82356001600160401b03811115613312575f80fd5b61331e85828601612be8565b92505061332d6020840161303e565b90509250929050565b8015158114613343575f80fd5b50565b5f805f60608486031215613358575f80fd5b8335925060208401356001600160401b03811115613374575f80fd5b61338086828701612be8565b925050604084013561339181613336565b809150509250925092565b5f80604083850312156133ad575f80fd5b82356001600160401b038111156133c2575f80fd5b6133ce85828601612be8565b92505060208301356133df81613336565b809150509250929050565b5f602082840312156133fa575f80fd5b81356129b981613336565b5f82601f830112613414575f80fd5b8135613422612c0a82612c88565b8082825260208201915060208360051b860101925085831115613443575f80fd5b602085015b83811015612d0557803561345b81613336565b835260209283019201613448565b5f805f6060848603121561347b575f80fd5b8335925060208401356001600160401b03811115613497575f80fd5b6134a386828701612be8565b92505060408401356001600160401b038111156134be575f80fd5b612d7086828701613405565b5f80604083850312156134db575f80fd5b82356001600160401b038111156134f0575f80fd5b6134fc85828601612be8565b92505060208301356001600160401b03811115613517575f80fd5b612e4e85828601613405565b5f81518060208401855e5f93019283525090919050565b5f6129b98284613523565b600181811c9082168061355957607f821691505b602082108103612a2657634e487b7160e01b5f52602260045260245ffd5b601f8211156135bb57805f5260205f20601f840160051c8101602085101561359c5750805b601f840160051c820191505b81811015610825575f81556001016135a8565b505050565b81516001600160401b038111156135d9576135d9612b56565b6135ed816135e78454613545565b84613577565b6020601f82116001811461361f575f83156136085750848201515b5f19600385901b1c1916600184901b178455610825565b5f84815260208120601f198516915b8281101561364e578785015182556020948501946001909201910161362e565b508482101561366b57868401515f19600387901b60f8161c191681555b50505050600190811b01905550565b5f82601f830112613689575f80fd5b8151613697612c0a82612bc2565b8181528460208386010111156136ab575f80fd5b8160208501602083015e5f918101602001919091529392505050565b5f602082840312156136d7575f80fd5b81516001600160401b038111156136ec575f80fd5b612ded8482850161367a565b634e487b7160e01b5f52603260045260245ffd5b5f612ded61371a8386613523565b84613523565b81810381811115610ae757634e487b7160e01b5f52601160045260245ffd5b5f61374a8284613523565b600b60fa1b81526001019392505050565b5f6137668284613523565b605d60f81b81526001019392505050565b5f60208284031215613787575f80fd5b5051919050565b5f6020828403121561379e575f80fd5b81516001600160401b038111156137b3575f80fd5b8201608081850312156137c4575f80fd5b6137cc612b6a565b81516001600160401b038111156137e1575f80fd5b6137ed8682850161367a565b8252506020828101519082015260408201516001600160401b03811115613812575f80fd5b61381e8682850161367a565b60408301525060608201516001600160401b0381111561383c575f80fd5b6138488682850161367a565b606083015250949350505050565b602080825282518282018190525f918401906040840190835b81811015612db15783516001600160a01b031683526020938401939092019160010161386f565b5f602082016020835280845180835260408501915060408160051b8601019250602086015f5b828110156138ed57603f198786030184526138d8858351612ec6565b945060209384019391909101906001016138bc565b50929695505050505050565b5f602082016020835280845180835260408501915060408160051b8601019250602086015f5b828110156138ed57603f1987860301845261393b858351612ec6565b9450602093840193919091019060010161391f565b602081016009831061396457613964613169565b91905290565b5f6020828403121561397a575f80fd5b81516129b981613336565b602080825282518282018190525f918401906040840190835b81811015612db1578351151583526020938401939092019160010161399e565b61121760f11b81525f6139d46002830186613523565b601760f91b81526139e86001820186613523565b9050601760f91b81526139fe6001820185613523565b9695505050505050565b606081525f613a1a6060830186612ec6565b82810360208401525f8554613a2e81613545565b808452600182168015613a485760018114613a6457613a98565b60ff1983166020860152602082151560051b8601019350613a98565b885f5260205f205f5b83811015613a8f57815460208289010152600182019150602081019050613a6d565b86016020019450505b5050508381036040850152613aad8186612ec6565b979650505050505050565b601160f91b81525f613acd6001830184613523565b601160f91b81526001019392505050565b604081525f613af06040830185612ec6565b8281036020840152613b028185612ec6565b95945050505050565b5f613b168284613523565b615b5d60f01b8152600201939250505056fe885cb69240a935d632d79c317109709ecfa91a80626ff3989d68f67f5b1dd12da26469706673582212207c946756cf7dd8ef4784a408d3ef0bc99e5b2f409f2e0b14e64b9ccbf20e245964736f6c634300081a00330000000000000000000000007109709ecfa91a80626ff3989d68f67f5b1dd12d","linkReferences":{}},"methodIdentifiers":{"exists(string)":"261a323e","exists(uint256,string)":"43d9eb7b","get(string)":"693ec85e","get(uint256,string)":"805da4ad","getChainIds()":"1d776323","getRpcUrl()":"43ec8b6a","getRpcUrl(uint256)":"7df3ef12","resolveChainId(string)":"3f3a7588","set(string,address)":"a815ff15","set(string,address[])":"88c63d45","set(string,bool)":"ba0ff22c","set(string,bool[])":"fa3c074a","set(string,bytes)":"2b29c0fa","set(string,bytes32)":"2e3196a5","set(string,bytes32[])":"e6053250","set(string,bytes[])":"c91ca7ba","set(string,int256)":"2ef8ba74","set(string,int256[])":"de0fc9b3","set(string,string)":"e942b516","set(string,string[])":"59b39526","set(string,uint256)":"8a42ebe9","set(string,uint256[])":"7b8fed81","set(uint256,string,address)":"5eba0df0","set(uint256,string,address[])":"61141c97","set(uint256,string,bool)":"b3a64001","set(uint256,string,bool[])":"e298d00b","set(uint256,string,bytes)":"4d85ce80","set(uint256,string,bytes32)":"cf1cfa99","set(uint256,string,bytes32[])":"08f7b4b2","set(uint256,string,bytes[])":"93dbe6e0","set(uint256,string,int256)":"07d79d9a","set(uint256,string,int256[])":"8be19924","set(uint256,string,string)":"65560950","set(uint256,string,string[])":"cf72a2f3","set(uint256,string,uint256)":"22dc48fd","set(uint256,string,uint256[])":"db0075df","writeUpdatesBackToFile(bool)":"d6698dc4"},"id":13}