{"abi":[{"type":"function","name":"getFlow","inputs":[{"name":"","type":"address","internalType":"address"},{"name":"","type":"address","internalType":"address"},{"name":"","type":"address","internalType":"address"}],"outputs":[{"name":"lastUpdated","type":"uint256","internalType":"uint256"},{"name":"flowRate","type":"int96","internalType":"int96"},{"name":"deposit","type":"uint256","internalType":"uint256"},{"name":"owedDeposit","type":"uint256","internalType":"uint256"}],"stateMutability":"view"},{"type":"function","name":"mockFlowRate","inputs":[],"outputs":[{"name":"","type":"int96","internalType":"int96"}],"stateMutability":"view"},{"type":"function","name":"setFlowRate","inputs":[{"name":"_flowRate","type":"int96","internalType":"int96"}],"outputs":[],"stateMutability":"nonpayable"}],"bytecode":{"object":"0x6080604052348015600e575f80fd5b5061019e8061001c5f395ff3fe608060405234801561000f575f80fd5b506004361061003f575f3560e01c80630669f59a146100435780631335689214610067578063e6a1e888146100a2575b5f80fd5b5f5461004f90600b0b81565b604051600b9190910b81526020015b60405180910390f35b6100a06100753660046100e6565b5f80546bffffffffffffffffffffffff19166bffffffffffffffffffffffff92909216919091179055565b005b6100c36100b0366004610128565b50505f80544293600b9190910b92508190565b60408051948552600b9390930b602085015291830152606082015260800161005e565b5f602082840312156100f6575f80fd5b813580600b0b8114610106575f80fd5b9392505050565b80356001600160a01b0381168114610123575f80fd5b919050565b5f805f6060848603121561013a575f80fd5b6101438461010d565b92506101516020850161010d565b915061015f6040850161010d565b9050925092509256fea2646970667358221220ead25ec24908c3f96b79a4be660ea1aa655c428fc13527dda90b367a9c2fbd0b64736f6c634300081a0033","linkReferences":{}},"methodIdentifiers":{"getFlow(address,address,address)":"e6a1e888","mockFlowRate()":"0669f59a","setFlowRate(int96)":"13356892"},"id":265}