{"abi":[{"type":"constructor","inputs":[{"name":"_treasury","type":"address","internalType":"address"},{"name":"_devWallet","type":"address","internalType":"address"},{"name":"_prizePool","type":"address","internalType":"address"},{"name":"_cfa","type":"address","internalType":"address"}],"stateMutability":"nonpayable"},{"type":"function","name":"CANVAS_SIZE","inputs":[],"outputs":[{"name":"","type":"uint256","internalType":"uint256"}],"stateMutability":"view"},{"type":"function","name":"CFA_FORWARDER","inputs":[],"outputs":[{"name":"","type":"address","internalType":"address"}],"stateMutability":"view"},{"type":"function","name":"G_TOKEN","inputs":[],"outputs":[{"name":"","type":"address","internalType":"address"}],"stateMutability":"view"},{"type":"function","name":"MIN_ARMOR_FLOW_RATE","inputs":[],"outputs":[{"name":"","type":"int96","internalType":"int96"}],"stateMutability":"view"},{"type":"function","name":"PLACEMENT_FEE","inputs":[],"outputs":[{"name":"","type":"uint256","internalType":"uint256"}],"stateMutability":"view"},{"type":"function","name":"canImplementInterfaceForAddress","inputs":[{"name":"interfaceHash","type":"bytes32","internalType":"bytes32"},{"name":"","type":"address","internalType":"address"}],"outputs":[{"name":"","type":"bytes32","internalType":"bytes32"}],"stateMutability":"pure"},{"type":"function","name":"cfa","inputs":[],"outputs":[{"name":"","type":"address","internalType":"address"}],"stateMutability":"view"},{"type":"function","name":"devWallet","inputs":[],"outputs":[{"name":"","type":"address","internalType":"address"}],"stateMutability":"view"},{"type":"function","name":"getConfig","inputs":[],"outputs":[{"name":"canvasSize","type":"uint256","internalType":"uint256"},{"name":"placementFee","type":"uint256","internalType":"uint256"},{"name":"gToken","type":"address","internalType":"address"},{"name":"canvasAddress","type":"address","internalType":"address"},{"name":"isPaused","type":"bool","internalType":"bool"}],"stateMutability":"view"},{"type":"function","name":"getPixels","inputs":[{"name":"startIndex","type":"uint256","internalType":"uint256"},{"name":"count","type":"uint256","internalType":"uint256"}],"outputs":[{"name":"positions","type":"uint256[]","internalType":"uint256[]"},{"name":"owners","type":"address[]","internalType":"address[]"},{"name":"colors","type":"uint8[]","internalType":"uint8[]"}],"stateMutability":"view"},{"type":"function","name":"isPixelArmored","inputs":[{"name":"x","type":"uint256","internalType":"uint256"},{"name":"y","type":"uint256","internalType":"uint256"}],"outputs":[{"name":"","type":"bool","internalType":"bool"}],"stateMutability":"view"},{"type":"function","name":"owner","inputs":[],"outputs":[{"name":"","type":"address","internalType":"address"}],"stateMutability":"view"},{"type":"function","name":"pause","inputs":[],"outputs":[],"stateMutability":"nonpayable"},{"type":"function","name":"paused","inputs":[],"outputs":[{"name":"","type":"bool","internalType":"bool"}],"stateMutability":"view"},{"type":"function","name":"pixelColor","inputs":[{"name":"","type":"uint256","internalType":"uint256"}],"outputs":[{"name":"","type":"uint8","internalType":"uint8"}],"stateMutability":"view"},{"type":"function","name":"pixelOwner","inputs":[{"name":"","type":"uint256","internalType":"uint256"}],"outputs":[{"name":"","type":"address","internalType":"address"}],"stateMutability":"view"},{"type":"function","name":"positionOf","inputs":[{"name":"x","type":"uint256","internalType":"uint256"},{"name":"y","type":"uint256","internalType":"uint256"}],"outputs":[{"name":"","type":"uint256","internalType":"uint256"}],"stateMutability":"pure"},{"type":"function","name":"prizePool","inputs":[],"outputs":[{"name":"","type":"address","internalType":"address"}],"stateMutability":"view"},{"type":"function","name":"renounceOwnership","inputs":[],"outputs":[],"stateMutability":"nonpayable"},{"type":"function","name":"setCfa","inputs":[{"name":"_cfa","type":"address","internalType":"address"}],"outputs":[],"stateMutability":"nonpayable"},{"type":"function","name":"setDevWallet","inputs":[{"name":"_devWallet","type":"address","internalType":"address"}],"outputs":[],"stateMutability":"nonpayable"},{"type":"function","name":"setPrizePool","inputs":[{"name":"_prizePool","type":"address","internalType":"address"}],"outputs":[],"stateMutability":"nonpayable"},{"type":"function","name":"setTreasury","inputs":[{"name":"_treasury","type":"address","internalType":"address"}],"outputs":[],"stateMutability":"nonpayable"},{"type":"function","name":"tokensReceived","inputs":[{"name":"","type":"address","internalType":"address"},{"name":"from","type":"address","internalType":"address"},{"name":"to","type":"address","internalType":"address"},{"name":"amount","type":"uint256","internalType":"uint256"},{"name":"userData","type":"bytes","internalType":"bytes"},{"name":"","type":"bytes","internalType":"bytes"}],"outputs":[],"stateMutability":"nonpayable"},{"type":"function","name":"transferOwnership","inputs":[{"name":"newOwner","type":"address","internalType":"address"}],"outputs":[],"stateMutability":"nonpayable"},{"type":"function","name":"treasury","inputs":[],"outputs":[{"name":"","type":"address","internalType":"address"}],"stateMutability":"view"},{"type":"function","name":"unpause","inputs":[],"outputs":[],"stateMutability":"nonpayable"},{"type":"event","name":"CfaUpdated","inputs":[{"name":"previous","type":"address","indexed":true,"internalType":"address"},{"name":"current","type":"address","indexed":true,"internalType":"address"}],"anonymous":false},{"type":"event","name":"DevWalletUpdated","inputs":[{"name":"previous","type":"address","indexed":true,"internalType":"address"},{"name":"current","type":"address","indexed":true,"internalType":"address"}],"anonymous":false},{"type":"event","name":"OwnershipTransferred","inputs":[{"name":"previousOwner","type":"address","indexed":true,"internalType":"address"},{"name":"newOwner","type":"address","indexed":true,"internalType":"address"}],"anonymous":false},{"type":"event","name":"Paused","inputs":[{"name":"account","type":"address","indexed":false,"internalType":"address"}],"anonymous":false},{"type":"event","name":"PixelPlaced","inputs":[{"name":"user","type":"address","indexed":true,"internalType":"address"},{"name":"position","type":"uint256","indexed":true,"internalType":"uint256"},{"name":"color","type":"uint8","indexed":false,"internalType":"uint8"},{"name":"armored","type":"bool","indexed":false,"internalType":"bool"}],"anonymous":false},{"type":"event","name":"PrizePoolUpdated","inputs":[{"name":"previous","type":"address","indexed":true,"internalType":"address"},{"name":"current","type":"address","indexed":true,"internalType":"address"}],"anonymous":false},{"type":"event","name":"TreasuryUpdated","inputs":[{"name":"previous","type":"address","indexed":true,"internalType":"address"},{"name":"current","type":"address","indexed":true,"internalType":"address"}],"anonymous":false},{"type":"event","name":"Unpaused","inputs":[{"name":"account","type":"address","indexed":false,"internalType":"address"}],"anonymous":false},{"type":"error","name":"CoordinatesOutOfBounds","inputs":[]},{"type":"error","name":"EnforcedPause","inputs":[]},{"type":"error","name":"ExpectedPause","inputs":[]},{"type":"error","name":"InsufficientPayment","inputs":[]},{"type":"error","name":"InvalidAddress","inputs":[]},{"type":"error","name":"InvalidBatchRange","inputs":[]},{"type":"error","name":"InvalidUserDataLength","inputs":[]},{"type":"error","name":"OnlyGToken","inputs":[]},{"type":"error","name":"OwnableInvalidOwner","inputs":[{"name":"owner","type":"address","internalType":"address"}]},{"type":"error","name":"OwnableUnauthorizedAccount","inputs":[{"name":"account","type":"address","internalType":"address"}]},{"type":"error","name":"PixelArmored","inputs":[]},{"type":"error","name":"ReentrancyGuardReentrantCall","inputs":[]},{"type":"error","name":"TransferFailed","inputs":[]}],"bytecode":{"object":"0x608060405234801561000f575f80fd5b5060405161173f38038061173f83398101604081905261002e9161029e565b338061005457604051631e4fbdf760e01b81525f60048201526024015b60405180910390fd5b61005d8161011c565b50600180556001600160a01b038416158061007f57506001600160a01b038316155b8061009157506001600160a01b038216155b806100a357506001600160a01b038116155b156100c15760405163e6c4247b60e01b815260040160405180910390fd5b600580546001600160a01b038087166001600160a01b0319928316179092556006805486841690831617905560078054858416908316179055600880549284169290911691909117905561011361016b565b50505050610305565b5f80546001600160a01b038381166001600160a01b0319831681178455604051919092169283917f8be0079c531659141344cd1fd0a4f28419497f9722a3daafe3b4186f6b6457e09190a35050565b60405130602482018190527fb281fc8c12954d22544db45de3159a39272895b169a852b314f9cc762e44c53b604483015260648201525f90731820a4b7618bde71dce8cdc73aab6c95905fad249060840160408051601f198184030181529181526020820180516001600160e01b03166329965a1d60e01b179052516101f191906102ef565b5f604051808303815f865af19150503d805f811461022a576040519150601f19603f3d011682016040523d82523d5f602084013e61022f565b606091505b50509050806102805760405162461bcd60e51b815260206004820152601b60248201527f4552433138323020726567697374726174696f6e206661696c65640000000000604482015260640161004b565b50565b80516001600160a01b0381168114610299575f80fd5b919050565b5f805f80608085870312156102b1575f80fd5b6102ba85610283565b93506102c860208601610283565b92506102d660408601610283565b91506102e460608601610283565b905092959194509250565b5f82518060208501845e5f920191825250919050565b61142d806103125f395ff3fe608060405234801561000f575f80fd5b50600436106101a0575f3560e01c80635c975abb116100f35780638ea5220f11610093578063dd15568f1161006e578063dd15568f146103e6578063e4e464b3146103f9578063f0f442601461040c578063f2fde38b1461041f575f80fd5b80638ea5220f14610373578063c3f909d414610386578063c6cce905146103c4575f80fd5b8063715018a6116100ce578063715018a614610340578063719ce73e146103485780638456cb591461035b5780638da5cb5b14610363575f80fd5b80635c975abb1461030d57806361d027b3146103245780636960d8d614610337575f80fd5b80632231f6c61161015e578063336c6d3911610139578063336c6d39146102d05780633ab3244a146102e35780633f4ba83a146102f25780634b621ae7146102fa575f80fd5b80632231f6c614610266578063229c35bf14610287578063249cb3fa146102af575f80fd5b806223de29146101a45780631054df8c146101b9578063182d3f58146101e95780631859f4d8146102045780631d8d0f481461021f5780631f53ac0214610253575b5f80fd5b6101b76101b236600461111e565b610432565b005b6008546101cc906001600160a01b031681565b6040516001600160a01b0390911681526020015b60405180910390f35b6101cc7362b8b11039fcfe5ab0c56e502b1c372a3d2a9c7a81565b6101cc73cfa132e353cb4e398080b9700609bb008eceb12581565b61024161022d3660046111c7565b60046020525f908152604090205460ff1681565b60405160ff90911681526020016101e0565b6101b76102613660046111de565b610670565b61027466291e8f1dca0bda81565b604051600b9190910b81526020016101e0565b6101cc6102953660046111c7565b60036020525f90815260409020546001600160a01b031681565b6102c26102bd3660046111f7565b6106f0565b6040519081526020016101e0565b6101b76102de3660046111de565b610761565b6102c2670de0b6b3a764000081565b6101b76107e1565b6101b76103083660046111de565b6107f3565b60025460ff165b60405190151581526020016101e0565b6005546101cc906001600160a01b031681565b6102c261020081565b6101b7610873565b6007546101cc906001600160a01b031681565b6101b7610884565b5f546001600160a01b03166101cc565b6006546101cc906001600160a01b031681565b61038e610894565b6040805195865260208601949094526001600160a01b03928316938501939093521660608301521515608082015260a0016101e0565b6103d76103d2366004611221565b6108d8565b6040516101e09392919061127e565b6102c26103f4366004611221565b610abf565b610314610407366004611221565b610b0e565b6101b761041a3660046111de565b610b80565b6101b761042d3660046111de565b610c00565b61043a610c42565b610442610c66565b337362b8b11039fcfe5ab0c56e502b1c372a3d2a9c7a14610476576040516310e98b7160e21b815260040160405180910390fd5b306001600160a01b0387160361065d57670de0b6b3a76400008510156104af5760405163cd1c886760e01b815260040160405180910390fd5b600583146104d0576040516342f6e2a360e11b815260040160405180910390fd5b5f805f6104dd8787610c90565b9250925092506102008361ffff161015806104fe57506102008261ffff1610155b1561051c5760405163bb8683c960e01b815260040160405180910390fd5b5f61052d61020061ffff851661132e565b61053b9061ffff8616611345565b5f818152600360205260409020549091506001600160a01b0316801580159061057157506105718561ffff168561ffff16610b0e565b1561058f57604051631537ef9d60e21b815260040160405180910390fd5b8b60035f8481526020019081526020015f205f6101000a8154816001600160a01b0302191690836001600160a01b031602179055508260045f8481526020019081526020015f205f6101000a81548160ff021916908360ff1602179055506105f68a610d40565b5f6106008d610e30565b9050828d6001600160a01b03167f8f4c6222b7fb8cb0ae5669803a4858c1b5ba05d9933cd2e371455ef92d8d6174868460405161064e92919060ff9290921682521515602082015260400190565b60405180910390a35050505050505b61066660018055565b5050505050505050565b610678610ed9565b6001600160a01b03811661069f5760405163e6c4247b60e01b815260040160405180910390fd5b600680546001600160a01b038381166001600160a01b0319831681179093556040519116919082907f0db17895a9d092fb3ca24d626f2150dd80c185b0706b36f1040ee239f56cb871905f90a35050565b5f7fb281fc8c12954d22544db45de3159a39272895b169a852b314f9cc762e44c53b83036107585760405173455243313832305f4143434550545f4d4147494360601b602082015260340160405160208183030381529060405280519060200120905061075b565b505f5b92915050565b610769610ed9565b6001600160a01b0381166107905760405163e6c4247b60e01b815260040160405180910390fd5b600780546001600160a01b038381166001600160a01b0319831681179093556040519116919082907feb5dc9c1a346ed3e3bae2d1b244cf3b5b54010020ad16c8d7c63d96a19729ae3905f90a35050565b6107e9610ed9565b6107f1610f05565b565b6107fb610ed9565b6001600160a01b0381166108225760405163e6c4247b60e01b815260040160405180910390fd5b600880546001600160a01b038381166001600160a01b0319831681179093556040519116919082907f9b044fd6c488c926b52618172efbbe163d7377785047eb1ae930f7ea1327b8a3905f90a35050565b61087b610ed9565b6107f15f610f57565b61088c610ed9565b6107f1610fa6565b5f805f805f610200670de0b6b3a76400007362b8b11039fcfe5ab0c56e502b1c372a3d2a9c7a306108c760025460ff1690565b945094509450945094509091929394565b606080806108e86102008061132e565b8510158061090957506108fd6102008061132e565b6109078587611345565b115b1561092757604051631d29d80d60e31b815260040160405180910390fd5b8367ffffffffffffffff81111561094057610940611358565b604051908082528060200260200182016040528015610969578160200160208202803683370190505b5092508367ffffffffffffffff81111561098557610985611358565b6040519080825280602002602001820160405280156109ae578160200160208202803683370190505b5091508367ffffffffffffffff8111156109ca576109ca611358565b6040519080825280602002602001820160405280156109f3578160200160208202803683370190505b5090505f5b84811015610ab7575f610a0b8288611345565b905080858381518110610a2057610a2061136c565b6020908102919091018101919091525f8281526003909152604090205484516001600160a01b0390911690859084908110610a5d57610a5d61136c565b6001600160a01b039092166020928302919091018201525f82815260049091526040902054835160ff90911690849084908110610a9c57610a9c61136c565b60ff90921660209283029190910190910152506001016109f8565b509250925092565b5f61020083101580610ad357506102008210155b15610af15760405163bb8683c960e01b815260040160405180910390fd5b610afd6102008361132e565b610b079084611345565b9392505050565b5f61020083101580610b2257506102008210155b15610b2e57505f61075b565b5f610b3b6102008461132e565b610b459085611345565b5f818152600360205260409020549091506001600160a01b031680610b6e575f9250505061075b565b610b7781610e30565b95945050505050565b610b88610ed9565b6001600160a01b038116610baf5760405163e6c4247b60e01b815260040160405180910390fd5b600580546001600160a01b038381166001600160a01b0319831681179093556040519116919082907f4ab5be82436d353e61ca18726e984e561f5c1cc7c6d38b29d2553c790434705a905f90a35050565b610c08610ed9565b6001600160a01b038116610c3657604051631e4fbdf760e01b81525f60048201526024015b60405180910390fd5b610c3f81610f57565b50565b60025460ff16156107f15760405163d93c066560e01b815260040160405180910390fd5b600260015403610c8957604051633ee5aeb560e01b815260040160405180910390fd5b6002600155565b5f805f84846001818110610ca657610ca661136c565b919091013560f81c9050600886865f81610cc257610cc261136c565b919091013560f81c90911b919091179350859050846003818110610ce857610ce861136c565b919091013560f81c9050600886866002818110610d0757610d0761136c565b919091013560f81c90911b919091179250859050846004818110610d2d57610d2d61136c565b9497939650509092013560f81c92509050565b5f612710610d50611f408461132e565b610d5a9190611380565b90505f612710610d6c6103e88561132e565b610d769190611380565b90505f612710610d886103e88661132e565b610d929190611380565b90508215610dc657600754610dc6907362b8b11039fcfe5ab0c56e502b1c372a3d2a9c7a906001600160a01b031685610fe3565b8115610df857600554610df8907362b8b11039fcfe5ab0c56e502b1c372a3d2a9c7a906001600160a01b031684610fe3565b8015610e2a57600654610e2a907362b8b11039fcfe5ab0c56e502b1c372a3d2a9c7a906001600160a01b031683610fe3565b50505050565b600854604051631cd43d1160e31b81527362b8b11039fcfe5ab0c56e502b1c372a3d2a9c7a60048201526001600160a01b0383811660248301523060448301525f92839291169063e6a1e88890606401608060405180830381865afa158015610e9b573d5f803e3d5ffd5b505050506040513d601f19601f82011682018060405250810190610ebf919061139f565b505066291e8f1dca0bda600b9190910b1215949350505050565b5f546001600160a01b031633146107f15760405163118cdaa760e01b8152336004820152602401610c2d565b610f0d61109b565b6002805460ff191690557f5db9ee0a495bf2e6ff9c91a7834c1ba4fdd244a5e8aa4e537bd38aeae4b073aa335b6040516001600160a01b03909116815260200160405180910390a1565b5f80546001600160a01b038381166001600160a01b0319831681178455604051919092169283917f8be0079c531659141344cd1fd0a4f28419497f9722a3daafe3b4186f6b6457e09190a35050565b610fae610c42565b6002805460ff191660011790557f62e78cea01bee320cd4e420270b5ea74000d11b0c9f74754ebdbfc544b05a258610f3a3390565b6040516001600160a01b038381166024830152604482018390525f919085169060640160408051601f198184030181529181526020820180516001600160e01b031663a9059cbb60e01b1790525161103b91906113e1565b5f604051808303815f865af19150503d805f8114611074576040519150601f19603f3d011682016040523d82523d5f602084013e611079565b606091505b5050905080610e2a576040516312171d8360e31b815260040160405180910390fd5b60025460ff166107f157604051638dfc202b60e01b815260040160405180910390fd5b80356001600160a01b03811681146110d4575f80fd5b919050565b5f8083601f8401126110e9575f80fd5b50813567ffffffffffffffff811115611100575f80fd5b602083019150836020828501011115611117575f80fd5b9250929050565b5f805f805f805f8060c0898b031215611135575f80fd5b61113e896110be565b975061114c60208a016110be565b965061115a60408a016110be565b955060608901359450608089013567ffffffffffffffff81111561117c575f80fd5b6111888b828c016110d9565b90955093505060a089013567ffffffffffffffff8111156111a7575f80fd5b6111b38b828c016110d9565b999c989b5096995094979396929594505050565b5f602082840312156111d7575f80fd5b5035919050565b5f602082840312156111ee575f80fd5b610b07826110be565b5f8060408385031215611208575f80fd5b82359150611218602084016110be565b90509250929050565b5f8060408385031215611232575f80fd5b50508035926020909101359150565b5f8151808452602084019350602083015f5b8281101561127457815160ff16865260209586019590910190600101611253565b5093949350505050565b606080825284519082018190525f9060208601906080840190835b818110156112b7578351835260209384019390920191600101611299565b5050838103602080860191909152865180835291810192508601905f5b818110156112fb5782516001600160a01b03168452602093840193909201916001016112d4565b50505082810360408401526113108185611241565b9695505050505050565b634e487b7160e01b5f52601160045260245ffd5b808202811582820484141761075b5761075b61131a565b8082018082111561075b5761075b61131a565b634e487b7160e01b5f52604160045260245ffd5b634e487b7160e01b5f52603260045260245ffd5b5f8261139a57634e487b7160e01b5f52601260045260245ffd5b500490565b5f805f80608085870312156113b2575f80fd5b84516020860151909450600b81900b81146113cb575f80fd5b6040860151606090960151949790965092505050565b5f82518060208501845e5f92019182525091905056fea26469706673582212206ab61d84d23cad8cf102c1e45bad331281913c33e9ccd9beb011954b29e07fd364736f6c634300081a0033","linkReferences":{}},"methodIdentifiers":{"CANVAS_SIZE()":"6960d8d6","CFA_FORWARDER()":"1859f4d8","G_TOKEN()":"182d3f58","MIN_ARMOR_FLOW_RATE()":"2231f6c6","PLACEMENT_FEE()":"3ab3244a","canImplementInterfaceForAddress(bytes32,address)":"249cb3fa","cfa()":"1054df8c","devWallet()":"8ea5220f","getConfig()":"c3f909d4","getPixels(uint256,uint256)":"c6cce905","isPixelArmored(uint256,uint256)":"e4e464b3","owner()":"8da5cb5b","pause()":"8456cb59","paused()":"5c975abb","pixelColor(uint256)":"1d8d0f48","pixelOwner(uint256)":"229c35bf","positionOf(uint256,uint256)":"dd15568f","prizePool()":"719ce73e","renounceOwnership()":"715018a6","setCfa(address)":"4b621ae7","setDevWallet(address)":"1f53ac02","setPrizePool(address)":"336c6d39","setTreasury(address)":"f0f44260","tokensReceived(address,address,address,uint256,bytes,bytes)":"0023de29","transferOwnership(address)":"f2fde38b","treasury()":"61d027b3","unpause()":"3f4ba83a"},"id":1}