{"abi":[{"type":"constructor","inputs":[{"name":"baseURI_","type":"string","internalType":"string"}],"stateMutability":"nonpayable"},{"type":"function","name":"approve","inputs":[{"name":"to","type":"address","internalType":"address"},{"name":"tokenId","type":"uint256","internalType":"uint256"}],"outputs":[],"stateMutability":"nonpayable"},{"type":"function","name":"balanceOf","inputs":[{"name":"owner","type":"address","internalType":"address"}],"outputs":[{"name":"","type":"uint256","internalType":"uint256"}],"stateMutability":"view"},{"type":"function","name":"getApproved","inputs":[{"name":"tokenId","type":"uint256","internalType":"uint256"}],"outputs":[{"name":"","type":"address","internalType":"address"}],"stateMutability":"view"},{"type":"function","name":"isApprovedForAll","inputs":[{"name":"owner","type":"address","internalType":"address"},{"name":"operator","type":"address","internalType":"address"}],"outputs":[{"name":"","type":"bool","internalType":"bool"}],"stateMutability":"view"},{"type":"function","name":"mint","inputs":[{"name":"to","type":"address","internalType":"address"},{"name":"roundId","type":"uint256","internalType":"uint256"}],"outputs":[{"name":"tokenId","type":"uint256","internalType":"uint256"}],"stateMutability":"nonpayable"},{"type":"function","name":"name","inputs":[],"outputs":[{"name":"","type":"string","internalType":"string"}],"stateMutability":"view"},{"type":"function","name":"owner","inputs":[],"outputs":[{"name":"","type":"address","internalType":"address"}],"stateMutability":"view"},{"type":"function","name":"ownerOf","inputs":[{"name":"tokenId","type":"uint256","internalType":"uint256"}],"outputs":[{"name":"","type":"address","internalType":"address"}],"stateMutability":"view"},{"type":"function","name":"renounceOwnership","inputs":[],"outputs":[],"stateMutability":"nonpayable"},{"type":"function","name":"roundByTokenId","inputs":[{"name":"","type":"uint256","internalType":"uint256"}],"outputs":[{"name":"","type":"uint256","internalType":"uint256"}],"stateMutability":"view"},{"type":"function","name":"safeTransferFrom","inputs":[{"name":"from","type":"address","internalType":"address"},{"name":"to","type":"address","internalType":"address"},{"name":"tokenId","type":"uint256","internalType":"uint256"}],"outputs":[],"stateMutability":"nonpayable"},{"type":"function","name":"safeTransferFrom","inputs":[{"name":"from","type":"address","internalType":"address"},{"name":"to","type":"address","internalType":"address"},{"name":"tokenId","type":"uint256","internalType":"uint256"},{"name":"data","type":"bytes","internalType":"bytes"}],"outputs":[],"stateMutability":"nonpayable"},{"type":"function","name":"setApprovalForAll","inputs":[{"name":"operator","type":"address","internalType":"address"},{"name":"approved","type":"bool","internalType":"bool"}],"outputs":[],"stateMutability":"nonpayable"},{"type":"function","name":"setBaseURI","inputs":[{"name":"baseURI_","type":"string","internalType":"string"}],"outputs":[],"stateMutability":"nonpayable"},{"type":"function","name":"supportsInterface","inputs":[{"name":"interfaceId","type":"bytes4","internalType":"bytes4"}],"outputs":[{"name":"","type":"bool","internalType":"bool"}],"stateMutability":"view"},{"type":"function","name":"symbol","inputs":[],"outputs":[{"name":"","type":"string","internalType":"string"}],"stateMutability":"view"},{"type":"function","name":"tokenURI","inputs":[{"name":"tokenId","type":"uint256","internalType":"uint256"}],"outputs":[{"name":"","type":"string","internalType":"string"}],"stateMutability":"view"},{"type":"function","name":"transferFrom","inputs":[{"name":"from","type":"address","internalType":"address"},{"name":"to","type":"address","internalType":"address"},{"name":"tokenId","type":"uint256","internalType":"uint256"}],"outputs":[],"stateMutability":"nonpayable"},{"type":"function","name":"transferOwnership","inputs":[{"name":"newOwner","type":"address","internalType":"address"}],"outputs":[],"stateMutability":"nonpayable"},{"type":"event","name":"Approval","inputs":[{"name":"owner","type":"address","indexed":true,"internalType":"address"},{"name":"approved","type":"address","indexed":true,"internalType":"address"},{"name":"tokenId","type":"uint256","indexed":true,"internalType":"uint256"}],"anonymous":false},{"type":"event","name":"ApprovalForAll","inputs":[{"name":"owner","type":"address","indexed":true,"internalType":"address"},{"name":"operator","type":"address","indexed":true,"internalType":"address"},{"name":"approved","type":"bool","indexed":false,"internalType":"bool"}],"anonymous":false},{"type":"event","name":"Minted","inputs":[{"name":"to","type":"address","indexed":true,"internalType":"address"},{"name":"tokenId","type":"uint256","indexed":true,"internalType":"uint256"},{"name":"roundId","type":"uint256","indexed":false,"internalType":"uint256"}],"anonymous":false},{"type":"event","name":"OwnershipTransferred","inputs":[{"name":"previousOwner","type":"address","indexed":true,"internalType":"address"},{"name":"newOwner","type":"address","indexed":true,"internalType":"address"}],"anonymous":false},{"type":"event","name":"Transfer","inputs":[{"name":"from","type":"address","indexed":true,"internalType":"address"},{"name":"to","type":"address","indexed":true,"internalType":"address"},{"name":"tokenId","type":"uint256","indexed":true,"internalType":"uint256"}],"anonymous":false},{"type":"error","name":"ERC721IncorrectOwner","inputs":[{"name":"sender","type":"address","internalType":"address"},{"name":"tokenId","type":"uint256","internalType":"uint256"},{"name":"owner","type":"address","internalType":"address"}]},{"type":"error","name":"ERC721InsufficientApproval","inputs":[{"name":"operator","type":"address","internalType":"address"},{"name":"tokenId","type":"uint256","internalType":"uint256"}]},{"type":"error","name":"ERC721InvalidApprover","inputs":[{"name":"approver","type":"address","internalType":"address"}]},{"type":"error","name":"ERC721InvalidOperator","inputs":[{"name":"operator","type":"address","internalType":"address"}]},{"type":"error","name":"ERC721InvalidOwner","inputs":[{"name":"owner","type":"address","internalType":"address"}]},{"type":"error","name":"ERC721InvalidReceiver","inputs":[{"name":"receiver","type":"address","internalType":"address"}]},{"type":"error","name":"ERC721InvalidSender","inputs":[{"name":"sender","type":"address","internalType":"address"}]},{"type":"error","name":"ERC721NonexistentToken","inputs":[{"name":"tokenId","type":"uint256","internalType":"uint256"}]},{"type":"error","name":"OwnableInvalidOwner","inputs":[{"name":"owner","type":"address","internalType":"address"}]},{"type":"error","name":"OwnableUnauthorizedAccount","inputs":[{"name":"account","type":"address","internalType":"address"}]}],"bytecode":{"object":"0x608060405234801561000f575f80fd5b506040516115ff3803806115ff83398101604081905261002e91610145565b33604051806040016040528060118152602001702834bc32b636b0b734b0902932b3b4b7b760791b8152506040518060400160405280600681526020016550584c52454760d01b815250815f90816100869190610279565b5060016100938282610279565b5050506001600160a01b0381166100c357604051631e4fbdf760e01b81525f600482015260240160405180910390fd5b6100cc816100e0565b5060086100d98282610279565b5050610333565b600680546001600160a01b038381166001600160a01b0319831681179093556040519116919082907f8be0079c531659141344cd1fd0a4f28419497f9722a3daafe3b4186f6b6457e0905f90a35050565b634e487b7160e01b5f52604160045260245ffd5b5f60208284031215610155575f80fd5b81516001600160401b0381111561016a575f80fd5b8201601f8101841361017a575f80fd5b80516001600160401b0381111561019357610193610131565b604051601f8201601f19908116603f011681016001600160401b03811182821017156101c1576101c1610131565b6040528181528282016020018610156101d8575f80fd5b8160208401602083015e5f91810160200191909152949350505050565b600181811c9082168061020957607f821691505b60208210810361022757634e487b7160e01b5f52602260045260245ffd5b50919050565b601f82111561027457805f5260205f20601f840160051c810160208510156102525750805b601f840160051c820191505b81811015610271575f815560010161025e565b50505b505050565b81516001600160401b0381111561029257610292610131565b6102a6816102a084546101f5565b8461022d565b6020601f8211600181146102d8575f83156102c15750848201515b5f19600385901b1c1916600184901b178455610271565b5f84815260208120601f198516915b8281101561030757878501518255602094850194600190920191016102e7565b508482101561032457868401515f19600387901b60f8161c191681555b50505050600190811b01905550565b6112bf806103405f395ff3fe608060405234801561000f575f80fd5b506004361061011c575f3560e01c806370a08231116100a9578063b88d4fde1161006e578063b88d4fde14610251578063c87b56dd14610264578063e2c34bd514610277578063e985e9c514610296578063f2fde38b146102a9575f80fd5b806370a082311461020a578063715018a61461021d5780638da5cb5b1461022557806395d89b4114610236578063a22cb4651461023e575f80fd5b806323b872dd116100ef57806323b872dd1461019d57806340c10f19146101b057806342842e0e146101d157806355f804b3146101e45780636352211e146101f7575f80fd5b806301ffc9a71461012057806306fdde0314610148578063081812fc1461015d578063095ea7b314610188575b5f80fd5b61013361012e366004610ddc565b6102bc565b60405190151581526020015b60405180910390f35b61015061030d565b60405161013f9190610e25565b61017061016b366004610e37565b61039c565b6040516001600160a01b03909116815260200161013f565b61019b610196366004610e69565b6103c3565b005b61019b6101ab366004610e91565b6103d2565b6101c36101be366004610e69565b610460565b60405190815260200161013f565b61019b6101df366004610e91565b6104e2565b61019b6101f2366004610ecb565b610501565b610170610205366004610e37565b610516565b6101c3610218366004610f39565b610520565b61019b610565565b6006546001600160a01b0316610170565b610150610578565b61019b61024c366004610f52565b610587565b61019b61025f366004610f9f565b610592565b610150610272366004610e37565b6105aa565b6101c3610285366004610e37565b60096020525f908152604090205481565b6101336102a436600461107c565b61060f565b61019b6102b7366004610f39565b61063c565b5f6001600160e01b031982166380ac58cd60e01b14806102ec57506001600160e01b03198216635b5e139f60e01b145b8061030757506301ffc9a760e01b6001600160e01b03198316145b92915050565b60605f805461031b906110ad565b80601f0160208091040260200160405190810160405280929190818152602001828054610347906110ad565b80156103925780601f1061036957610100808354040283529160200191610392565b820191905f5260205f20905b81548152906001019060200180831161037557829003601f168201915b5050505050905090565b5f6103a682610679565b505f828152600460205260409020546001600160a01b0316610307565b6103ce8282336106b1565b5050565b6001600160a01b03821661040057604051633250574960e11b81525f60048201526024015b60405180910390fd5b5f61040c8383336106be565b9050836001600160a01b0316816001600160a01b03161461045a576040516364283d7b60e01b81526001600160a01b03808616600483015260248201849052821660448201526064016103f7565b50505050565b5f6104696107b0565b60078054905f610478836110e5565b909155505f818152600960205260409020839055905061049883826107dd565b80836001600160a01b03167f25b428dfde728ccfaddad7e29e4ac23c24ed7fd1a6e3e3f91894a9a073f5dfff846040516104d491815260200190565b60405180910390a392915050565b6104fc83838360405180602001604052805f815250610592565b505050565b6105096107b0565b60086104fc82848361114d565b5f61030782610679565b5f6001600160a01b03821661054a576040516322718ad960e21b81525f60048201526024016103f7565b506001600160a01b03165f9081526003602052604090205490565b61056d6107b0565b6105765f6107f6565b565b60606001805461031b906110ad565b6103ce338383610847565b61059d8484846103d2565b61045a33858585856108e5565b60606105b582610679565b505f6105bf610a0d565b90505f8151116105dd5760405180602001604052805f815250610608565b806105e784610a1c565b6040516020016105f892919061121e565b6040516020818303038152906040525b9392505050565b6001600160a01b039182165f90815260056020908152604080832093909416825291909152205460ff1690565b6106446107b0565b6001600160a01b03811661066d57604051631e4fbdf760e01b81525f60048201526024016103f7565b610676816107f6565b50565b5f818152600260205260408120546001600160a01b03168061030757604051637e27328960e01b8152600481018490526024016103f7565b6104fc8383836001610aac565b5f828152600260205260408120546001600160a01b03908116908316156106ea576106ea818486610bb0565b6001600160a01b03811615610724576107055f855f80610aac565b6001600160a01b0381165f90815260036020526040902080545f190190555b6001600160a01b03851615610752576001600160a01b0385165f908152600360205260409020805460010190555b5f8481526002602052604080822080546001600160a01b0319166001600160a01b0389811691821790925591518793918516917fddf252ad1be2c89b69c2b068fc378daa952ba7f163c4a11628f55a4df523b3ef91a4949350505050565b6006546001600160a01b031633146105765760405163118cdaa760e01b81523360048201526024016103f7565b6103ce828260405180602001604052805f815250610c14565b600680546001600160a01b038381166001600160a01b0319831681179093556040519116919082907f8be0079c531659141344cd1fd0a4f28419497f9722a3daafe3b4186f6b6457e0905f90a35050565b6001600160a01b03821661087957604051630b61174360e31b81526001600160a01b03831660048201526024016103f7565b6001600160a01b038381165f81815260056020908152604080832094871680845294825291829020805460ff191686151590811790915591519182527f17307eab39ab6107e8899845ad3d59bd9653f200f220920489ca2b5937696c31910160405180910390a3505050565b6001600160a01b0383163b15610a0657604051630a85bd0160e11b81526001600160a01b0384169063150b7a0290610927908890889087908790600401611232565b6020604051808303815f875af1925050508015610961575060408051601f3d908101601f1916820190925261095e9181019061126e565b60015b6109c8573d80801561098e576040519150601f19603f3d011682016040523d82523d5f602084013e610993565b606091505b5080515f036109c057604051633250574960e11b81526001600160a01b03851660048201526024016103f7565b805160208201fd5b6001600160e01b03198116630a85bd0160e11b14610a0457604051633250574960e11b81526001600160a01b03851660048201526024016103f7565b505b5050505050565b60606008805461031b906110ad565b60605f610a2883610c2b565b60010190505f8167ffffffffffffffff811115610a4757610a47610f8b565b6040519080825280601f01601f191660200182016040528015610a71576020820181803683370190505b5090508181016020015b5f19016f181899199a1a9b1b9c1cb0b131b232b360811b600a86061a8153600a8504945084610a7b57509392505050565b8080610ac057506001600160a01b03821615155b15610b81575f610acf84610679565b90506001600160a01b03831615801590610afb5750826001600160a01b0316816001600160a01b031614155b8015610b0e5750610b0c818461060f565b155b15610b375760405163a9fbf51f60e01b81526001600160a01b03841660048201526024016103f7565b8115610b7f5783856001600160a01b0316826001600160a01b03167f8c5be1e5ebec7d5bd14f71427d1e84f3dd0314c0f7b2291e5b200ac8c7c3b92560405160405180910390a45b505b50505f90815260046020526040902080546001600160a01b0319166001600160a01b0392909216919091179055565b610bbb838383610d02565b6104fc576001600160a01b038316610be957604051637e27328960e01b8152600481018290526024016103f7565b60405163177e802f60e01b81526001600160a01b0383166004820152602481018290526044016103f7565b610c1e8383610d66565b6104fc335f8585856108e5565b5f8072184f03e93ff9f4daa797ed6e38ed64bf6a1f0160401b8310610c695772184f03e93ff9f4daa797ed6e38ed64bf6a1f0160401b830492506040015b6d04ee2d6d415b85acef81000000008310610c95576d04ee2d6d415b85acef8100000000830492506020015b662386f26fc100008310610cb357662386f26fc10000830492506010015b6305f5e1008310610ccb576305f5e100830492506008015b6127108310610cdf57612710830492506004015b60648310610cf1576064830492506002015b600a83106103075760010192915050565b5f6001600160a01b03831615801590610d5e5750826001600160a01b0316846001600160a01b03161480610d3b5750610d3b848461060f565b80610d5e57505f828152600460205260409020546001600160a01b038481169116145b949350505050565b6001600160a01b038216610d8f57604051633250574960e11b81525f60048201526024016103f7565b5f610d9b83835f6106be565b90506001600160a01b038116156104fc576040516339e3563760e11b81525f60048201526024016103f7565b6001600160e01b031981168114610676575f80fd5b5f60208284031215610dec575f80fd5b813561060881610dc7565b5f81518084528060208401602086015e5f602082860101526020601f19601f83011685010191505092915050565b602081525f6106086020830184610df7565b5f60208284031215610e47575f80fd5b5035919050565b80356001600160a01b0381168114610e64575f80fd5b919050565b5f8060408385031215610e7a575f80fd5b610e8383610e4e565b946020939093013593505050565b5f805f60608486031215610ea3575f80fd5b610eac84610e4e565b9250610eba60208501610e4e565b929592945050506040919091013590565b5f8060208385031215610edc575f80fd5b823567ffffffffffffffff811115610ef2575f80fd5b8301601f81018513610f02575f80fd5b803567ffffffffffffffff811115610f18575f80fd5b856020828401011115610f29575f80fd5b6020919091019590945092505050565b5f60208284031215610f49575f80fd5b61060882610e4e565b5f8060408385031215610f63575f80fd5b610f6c83610e4e565b915060208301358015158114610f80575f80fd5b809150509250929050565b634e487b7160e01b5f52604160045260245ffd5b5f805f8060808587031215610fb2575f80fd5b610fbb85610e4e565b9350610fc960208601610e4e565b925060408501359150606085013567ffffffffffffffff811115610feb575f80fd5b8501601f81018713610ffb575f80fd5b803567ffffffffffffffff81111561101557611015610f8b565b604051601f8201601f19908116603f0116810167ffffffffffffffff8111828210171561104457611044610f8b565b60405281815282820160200189101561105b575f80fd5b816020840160208301375f6020838301015280935050505092959194509250565b5f806040838503121561108d575f80fd5b61109683610e4e565b91506110a460208401610e4e565b90509250929050565b600181811c908216806110c157607f821691505b6020821081036110df57634e487b7160e01b5f52602260045260245ffd5b50919050565b5f6001820161110257634e487b7160e01b5f52601160045260245ffd5b5060010190565b601f8211156104fc57805f5260205f20601f840160051c8101602085101561112e5750805b601f840160051c820191505b81811015610a06575f815560010161113a565b67ffffffffffffffff83111561116557611165610f8b565b6111798361117383546110ad565b83611109565b5f601f8411600181146111aa575f85156111935750838201355b5f19600387901b1c1916600186901b178355610a06565b5f83815260208120601f198716915b828110156111d957868501358255602094850194600190920191016111b9565b50868210156111f5575f1960f88860031b161c19848701351681555b505060018560011b0183555050505050565b5f81518060208401855e5f93019283525090919050565b5f610d5e61122c8386611207565b84611207565b6001600160a01b03858116825284166020820152604081018390526080606082018190525f9061126490830184610df7565b9695505050505050565b5f6020828403121561127e575f80fd5b815161060881610dc756fea2646970667358221220150e090d2bae1c8ef7a27e9e1a47b065b0c9f1dfdd93c8de25b502b314fb42d464736f6c634300081a0033","linkReferences":{}},"methodIdentifiers":{"approve(address,uint256)":"095ea7b3","balanceOf(address)":"70a08231","getApproved(uint256)":"081812fc","isApprovedForAll(address,address)":"e985e9c5","mint(address,uint256)":"40c10f19","name()":"06fdde03","owner()":"8da5cb5b","ownerOf(uint256)":"6352211e","renounceOwnership()":"715018a6","roundByTokenId(uint256)":"e2c34bd5","safeTransferFrom(address,address,uint256)":"42842e0e","safeTransferFrom(address,address,uint256,bytes)":"b88d4fde","setApprovalForAll(address,bool)":"a22cb465","setBaseURI(string)":"55f804b3","supportsInterface(bytes4)":"01ffc9a7","symbol()":"95d89b41","tokenURI(uint256)":"c87b56dd","transferFrom(address,address,uint256)":"23b872dd","transferOwnership(address)":"f2fde38b"},"id":5}